:02000004085E94
:10C0000000C05E08FCFF5F0800000600200005017C
:08C010000401A018000000006B
:10C018001348144908B5884205D0134A824202D011
:10C02800124B121A98471248124A0021124B121A40
:10C03800984712481249884205D0124A824202D0D3
:10C048000A4B121A984710481049884205D0104ADE
:10C05800824202D0054B121A9847014808BD00BF1A
:10C06800F403071080F65F08780407102D0D1110EF
:10C0780080040710E8AF0710A10E111020CA3E0275
:10C08800A8C05E0828CA3E0228CA3E02B0C05E08A0
:0CC09800F8FF3F0219C05E080000000025
:08C0A8009CC05E085C3E3F02F3
:10C0B00081F0004102E000BF83F0004330B54FEA59
:10C0C00041044FEA430594EA050F08BF90EA020FC6
:10C0D0001FBF54EA000C55EA020C7FEA645C7FEA59
:10C0E000655C00F0E2804FEA5454D4EB5555B8BF7C
:10C0F0006D420CDD2C4480EA020281EA030382EAED
:10C10000000083EA010180EA020281EA0303362D7E
:10C1100088BF30BD11F0004F4FEA01314FF4801C51
:10C120004CEA113102D0404261EB410113F0004F63
:10C130004FEA03334CEA133302D0524263EB43031A
:10C1400094EA050F00F0A780A4F10104D5F1200EB8
:10C150000DDB02FA0EFC22FA05F2801841F1000113
:10C1600003FA0EF2801843FA05F359410EE0A5F1E7
:10C1700020050EF1200E012A03FA0EFC28BF4CF018
:10C18000020C43FA05F3C01851EBE37101F00045CE
:10C1900007D54FF0000EDCF1000C7EEB00006EEBDB
:10C1A0000101B1F5801F1BD3B1F5001F0CD3490865
:10C1B0005FEA30004FEA3C0C04F101044FEA4452BC
:10C1C00012F5800F80F09A80BCF1004F08BF5FEA43
:10C1D000500C50F1000041EB045141EA050130BD23
:10C1E0005FEA4C0C404141EB0101013C28BFB1F535
:10C1F000801FE9D291F0000F04BF01460020B1FA80
:10C2000081F308BF2033A3F10B03B3F120020CDA52
:10C210000C3208DD02F1140CC2F10C0201FA0CF030
:10C2200021FA02F10CE002F11402D8BFC2F1200C95
:10C2300001FA02F120FA0CFCDCBF41EA0C0190404B
:10C24000E41AA2BF01EB0451294330BD6FEA040494
:10C250001F3C1CDA0C340EDC04F11404C4F120027F
:10C2600020FA04F001FA02F340EA030021FA04F391
:10C2700045EA030130BDC4F10C04C4F1200220FAE8
:10C2800002F001FA04F340EA0300294630BD21FA26
:10C2900004F0294630BD94F0000F83F4801306BFEC
:10C2A00081F480110134013D4EE77FEA645C18BFE0
:10C2B0007FEA655C29D094EA050F08BF90EA020F77
:10C2C00005D054EA000C04BF1946104630BD91EA6F
:10C2D000030F1EBF0021002030BD5FEA545C05D172
:10C2E0004000494128BF41F0004130BD14F58004B1
:10C2F0003CBF01F5801130BD01F0004545F0FE4125
:10C3000041F470014FF0000030BD7FEA645C1ABF59
:10C31000194610467FEA655C1CBF0B46024650EA90
:10C32000013406BF52EA033591EA030F41F40021BC
:10C3300030BD00BF90F0000F04BF0021704730B542
:10C340004FF4806404F132044FF000054FF0000117
:10C3500050E700BF90F0000F04BF0021704730B5D8
:10C360004FF4806404F1320410F0004548BF4042AD
:10C370004FF000013EE700BF42004FEAE2014FEA02
:10C3800031014FEA02701FBF12F07F4393F07F4FDD
:10C3900081F06051704732F07F4208BF704793F0E0
:10C3A0007F4F04BF41F40021704730B54FF46074F3
:10C3B00001F0004521F000411CE700BF50EA0102F6
:10C3C00008BF704730B54FF000050AE050EA01029F
:10C3D00008BF704730B511F0004502D5404261EB0F
:10C3E00041014FF4806404F132045FEA915C3FF450
:10C3F000D8AE4FF003025FEADC0C18BF03325FEAED
:10C40000DC0C18BF033202EBDC02C2F1200300FA9D
:10C4100003FC20FA02F001FA03FE40EA0E0021FAC2
:10C4200002F11444BDE600BF4FF0FF3C06E000BF40
:10C430004FF0010C02E000BF4FF0010C4DF804CDAD
:10C440004FEA410C7FEA6C5C4FEA430C18BF7FEA6D
:10C450006C5C1BD001B050EA410C0CBF52EA430C9B
:10C4600091EA030F02BF90EA020F0020704710F11B
:10C47000000F91EA030F58BF994208BF90422CBFAA
:10C48000D8176FEAE37040F0010070474FEA410CA3
:10C490007FEA6C5C02D150EA013C07D14FEA430CC1
:10C4A0007FEA6C5CD6D152EA033CD3D05DF8040B32
:10C4B000704700BF8446104662468C461946634664
:10C4C00000E000BF01B5FFF7B7FF002848BF10F13B
:10C4D000000F01BD4DF808EDFFF7F4FF0CBF012080
:10C4E00000205DF808FB00BF4DF808EDFFF7EAFFFC
:10C4F00034BF012000205DF808FB00BF4DF808EDB7
:10C50000FFF7E0FF94BF012000205DF808FB00BFAB
:10C510004DF808EDFFF7CEFF94BF012000205DF835
:10C5200008FB00BF4DF808EDFFF7C4FF34BF012042
:10C5300000205DF808FB00BF10F8012B11F8013B4B
:10C54000012A28BF9A42F7D0D01A7047034613F841
:10C55000012B002AFBD1181A0138704770B503F07F
:10C56000A9FF0025054E064CA41BA408AC4200D12F
:10C5700070BD56F8043B98470135F7E7CCFF3F0202
:10C58000F8FF3F0201F0D4BD08B501F05DFEBDE843
:10C59000084003F047BF02F00FBD02F00DBD02F0EE
:10C5A00019BD0000744600B58DB02C22002101A8F1
:10C5B00006F0B7FC054B04940193054B02937B46B0
:10C5C000002101A8039302F0C3FBFEE72C000C003E
:10C5D0006C3E3F0270472DE9F74F0C6902FB04F9EE
:10C5E000002263434FEA840E0193A24230D01546E5
:10C5F0004FF0000C960012E00F684FEA850807EB39
:10C600008507D7F800A007683744C7F800A04FF0A7
:10C61000000AD14509D8019BA44476441D44C7684B
:10C6200067436745E8D80132DFE707680B6837449E
:10C6300003EB080BDBED007A97ED007AB4EEE77AB6
:10C64000F1EE10FAA24448BFC7ED007AF044E0E7EB
:10C6500003B0BDE8F08F2DE9F84F1C460A9B154644
:10C6600003FB04F20F4692000021064606F059FC37
:10C67000002213469446A44501D1BDE8F88F4FF03F
:10C68000000E0B9907EB82000A440A9906EB830916
:10C690000B4407EB820A06EB830B504513D0494647
:10C6A00005EB8E0809E0D1ED007AB8EC017AD0ED07
:10C6B000006AE6EE877AE1EC017A5945F3D10A99EE
:10C6C00004308E44E9E70CF1010CD4E72DE9F04F7A
:10C6D00085B00F9ECDE902230E9B4FEA860803FB2F
:10C6E00008F20F460021019006F01BFC00231A46B9
:10C6F0001D460E998D4202D105B0BDE8F08F01991B
:10C7000007EB820A01EB83001099DDF80C900A44D4
:10C71000002107EB820BB14219D0029CD44604EBF6
:10C72000810E08E09EED007AFCEC016AE6EE877A65
:10C73000C0ED007AC644DC45D0ED007AF2D1B9EC08
:10C74000017A77EE277A0131E0EC017AE3E70135EF
:10C750003344CEE70023F0B505461846934200D196
:10C76000F0BD55F82360541EA34202D1304401337A
:10C77000F4E751F82470013C7E43F5E730B502EB55
:10C7800083025C1E002C00DA30BD52F8045DB0FB61
:10C79000F5F305FB130341F824301368013CB0FBAB
:10C7A000F3F0EFE72DE9F04F2DED028B99468B6802
:10C7B000B1B00393144656683F9B039A0D4603EBB2
:10C7C000820302933D9B4F689B0004933D9B494627
:10C7D00009EB830B00231A460690BB4240F0908081
:10C7E000002304983C9A02EB000E1846B34240F036
:10C7F0009E804FF00108594540F09E804FF0010A9D
:10C80000724540F0A180039B12A9B3FBF8F3059396
:10C81000A36808A8B3FBFAF303933D9BB7EB030BA4
:10C8200034BF012300234FEA8B0B5A46079306F0CF
:10C8300051FB3D9B49469A00079B002B08AB18BF54
:10C84000002203EB0B0006F045FB049A3C990DA86F
:10C8500006F040FB3D9B0DA8F21A92009E4238BFA5
:10C860000022049B17A90344184606F033FB00235B
:10C870001CA808A9BB426FD1002321A80DA9B3426F
:10C8800073D14FF0000905F10C0BAB684B4575D81F
:10C89000002504F10C07A368AB4200F296803E9B92
:10C8A000002B00F0B8800026B7EE008A3F9C4FEACC
:10C8B000880704EB8805059B9E4240F0CD8000254B
:10C8C000B7EE008A039B9E00039B9D4200F0A3806D
:10C8D000029B9FED740A03EB850422460023CCE003
:10C8E0005CF804EB9E4508BF0120DC45F8D128B96F
:10C8F00030A800EB820040F8783C013201336CE74D
:10C90000CC460020F1E758F804AB9A4508BF4FF039
:10C91000010CF045F7D1BCF1000F06D10DF1C00CB0
:10C920000CEB800C4CF8643C013001335EE74FF0B7
:10C93000000CDDF8F080ECE751F8043B05EB8303D5
:10C94000DB6803FB08F856E752F8043B04EB83036B
:10C95000DB6803FB0AFA53E751F8042B013305EBBC
:10C960008202D26840F8042B84E751F8042B01338B
:10C9700004EB8202D26840F8042B80E73B4648462D
:10C9800026A95A46FFF7FAFE00232BA808A9BB42A6
:10C990000FD13A461CA92BA8FFF7DCFE2B683F9A63
:10C9A00003EB89031B6802EB8000036009F10109B6
:10C9B0006BE751F8042B0DF1C00C0CEB820252F81E
:10C9C000282C013340F8042BE1E7334628462BA9F5
:10C9D0003A46FFF7D3FE002326A80DA9B3420ED195
:10C9E000324621A926A8FFF7B5FE2368029A03EB79
:10C9F00085031B6802EB8000036001354BE751F8AB
:10CA0000042B0DF1C00C0CEB820252F8142C0133F4
:10CA100040F8042BE2E7039B06980093CDF80480CE
:10CA2000059B029A3F990068FFF715FE31B0BDECF7
:10CA3000028BBDE8F08FF3EC017AA7EEA70AAB42B8
:10CA4000F9D104F0F1FE234688EE007AAB4207D11B
:10CA500001363C443D442EE723469FED120AEEE7A3
:10CA6000D3ED007A67EE877AE3EC017AEEE7D2ED58
:10CA7000007AA7EEA70A013332449A45F7D104F0B1
:10CA8000D3FE002388EE007A9A4501D101351BE7D9
:10CA9000D4ED007A67EE877A0133C4ED007A34442E
:10CAA000F2E700BF00000000002270B583689342E7
:10CAB00016D9002395000EE004680E682C4406EB9E
:10CAC0008306D4ED007A96ED007A77EE877AC4ED8E
:10CAD000007A013304358C689C42EDD82244E5E7A6
:10CAE00070BD2DE9F0431F464B6887B0022B04460A
:10CAF000DDE90E8C0D46164616D814BF0123CB680F
:10CB00001269F16802FB03F9CDE90121009329685C
:10CB10003B6832680068FFF7D9FD49464346206804
:10CB200007B0BDE8F0431847013B04930023CDE96B
:10CB3000023C05930123019305AB009304ABFFF77F
:10CB400031FE39462046FFF7AFFFA1682068C04795
:10CB500007B0BDE8F08370B506468A6804469200C7
:10CB60000D4656F80C0B096806F0B4F900230122B3
:10CB70006968994204D8AB686260C4E9023370BD49
:10CB800046F8042B0133F3E72DE9F04106469046C1
:10CB90008A6804460D4656F80C0B096892001F4639
:10CBA00006F098F90021B94204D16160AB68A36036
:10CBB000BDE8F08158F82130013146F8043BF2E736
:10CBC000002300EB8101884200D17047D0ED007A4C
:10CBD000F5EEC07AF1EE10FA00F1040098BF40F8CB
:10CBE000043CF0E7F8B504462DED028B064690EDC7
:10CBF000008A034600EB8105AB420FD12746AF42C6
:10CC000015D1DFED157AAC421AD1F7EE006A86EE47
:10CC1000A77AAE4219D1BDEC028BF8BDF3EC017AD4
:10CC2000F4EE487AF1EE10FA37FE888AE4E797EDE1
:10CC3000000A30EE480A04F0E3FCA7EC010ADEE744
:10CC4000B4EC017A77EE877ADDE7D6ED007A67EE0D
:10CC5000877AE6EC017ADCE7000000002DE9F04F6E
:10CC60002DED028BD34CADF58A5D264683B018AD11
:10CC7000824689460FCE0FC596E80F0004F12006C4
:10CC800085E80F000FCE13AD0FC533684FF4A06BCE
:10CC90002B6004F1340620AD0FCE0FC596E80F00CF
:10CCA00004F1540685E80F000FCE28AD0FC596E8B5
:10CCB0000F0004F1740885E80F0098E8030007AB43
:10CCC00030AD04F17C0683E803000FCE0FC596E873
:10CCD0000F0004F19C0685E80F000FCE38AD0FC59C
:10CCE00096E80F0004F1BC0685E80F000FCE40ADBA
:10CCF0000FC596E80F0085E80F000DF5E9635A4669
:10CD00000021184606F00DF902264FF4A0731422F4
:10CD1000CDE94963102301250027CDE94B230DF50B
:10CD2000A07C09AB04F1DC0EC3E900754890BEE8B5
:10CD30000F00ACE80F009EE80F0004F1FC0E8CE839
:10CD40000F00BEE80F000DF5B07CCDE94D554F95B5
:10CD5000ACE80F009EE80F0004F58E7E8CE80F0013
:10CD600098E803000BAB0DF5C07C83E80300BEE838
:10CD70000F00ACE80F009EE80F0004F59E7E8CE8E3
:10CD80000F00BEE80F000DF5D07CACE80F009EE868
:10CD90000F0004F5AE7E8CE80F00BEE80F000DF525
:10CDA000E07CACE80F009EE80F008CE80F000DF669
:10CDB00048435A463946184606F0B3F84FF4A07176
:10CDC0000A23CDE97A1320230DF5007CCDE97C35CB
:10CDD00004F5BE7E0DABCDE97806C3E90077BEE869
:10CDE0000F00ACE80F009EE80F0004F5CE7E8CE843
:10CDF0000F00BEE80F000DF5087CCDE97E55ACE8CC
:10CE00000F009EE80F0004F5DE7E8CE80F0098E826
:10CE100003000FAB0DF5107C83E80300BEE80F00A4
:10CE2000ACE80F009EE80F008CE80F00D0AB04F5D3
:10CE3000EE714FF48072184606F04CF84023DFED97
:10CE40005E8A0DF5207C04F5377ECDE99805CDE9A5
:10CE50009A33BEE80F00ACE80F009EE80F009FED8C
:10CE6000578A8CE80F0004F53F7E0DF5287CBEE85C
:10CE70000F00ACE80F00CDE99C55CDE99E559EE82A
:10CE80000F0004F5477E8CE80F0011AB0DF5307CE8
:10CE9000C3E90075BEE80F00ACE80F009EE80F0084
:10CEA00004F54F7E8CE80F00BEE80F000DF5387CCE
:10CEB000ACE80F009EE80F0004F557748CE80F00F3
:10CEC0000FCC0DF5407CACE80F0094E80F000DF599
:10CED00088688CE80F0039464FF44272404606F0ED
:10CEE00020F8374C3346514613AA18A8FFF74CFEDA
:10CEF000B0EE680A07AA18A928A800F065FC236804
:10CF000030AACDE90153009538AB28A920A800F03C
:10CF100093FCB0EE480A09AA20A948A800F054FCE6
:10CF20003346324648A940A8FFF755FBB0EE680AE1
:10CF30000BAA40A958A800F047FC50AB0593236802
:10CF40000598CDE90153009568AB60AA58A900F097
:10CF500073FCB0EE480A05990DAA78A800F034FCDD
:10CF60003346324678A970A8FFF735FBB0EE680A61
:10CF70000FAA70A988A800F027FC236890AACDE921
:10CF80000153009598AB88A980A800F055FCB0EE3D
:10CF9000480A11AA80A9A8A800F016FC3346324618
:10CFA000A8A9A0A8FFF717FBA0A9B0A8FFF7D3FD79
:10CFB000B19B07E0E03A3F0200000000000080FF64
:10CFC000F8030710CBACC993B29BB3ADCA930FCD96
:10CFD0000FC42B6848462360B09BCDF80480C893EB
:10CFE000074BB8AA1B68C8A90093C0ABFFF779FD2F
:10CFF0000DF58A5D03B0BDEC028BBDE8F08F00BF7C
:10D00000FC0307102DE9F04F2DED088B0C4605466B
:10D0100085B0002800F03681002900F0338100211E
:10D020004422204605F07DFFD5ED017A9FEDC88AA8
:10D03000F8EEE77A87EE880AD5ED007AF8EEE77A1F
:10D0400020EE270A04F064FA2060D5ED027AF8EEAB
:10D05000E77A87EE880AD5ED007AF8EEE77A20EED7
:10D06000270A04F055FA6060D5ED047AF8EEE77A05
:10D0700087EE880AD5ED007AF8EEE77A20EE270AE7
:10D0800004F046FAA060D5ED057AF8EEE77A87EE6F
:10D09000880AD5ED007AF8EEE77A20EE270A04F048
:10D0A00037FAE060E96801EBD17149100131216183
:10D0B000D5ED0A7AF5EEC07AF1EE10FA40F2E28090
:10D0C0002168A268914206DA0020E06305B0BDEC59
:10D0D000088BBDE8F08F8A1A92FBF0F30133002B26
:10D0E000E36340F3CF80880001F066FF6061A068D1
:10D0F000800001F061FFA061286B18B9A068800072
:10D1000001F05AFFE061E868800001F055FF2062FD
:10D110002069800001F050FF6062A869800001F082
:10D120004BFF2063EB69E06B5843800001F044FF44
:10D1300063696063002B00F0A580A369002B00F0F9
:10D14000A180E769002F00F09D80236A002B00F08A
:10D150009980636A002B00F09580236B002B00F010
:10D160009180002800F08E802E6BB6EE009A002E83
:10D170000CBF0123002384F8403056D0D5ED007A4F
:10D180009FED74AAF8EEE78AD5ED097AB7EE008A2A
:10D1900087EE8A0A30EE080AAF69DFED6FAAD4F88D
:10D1A000108004F06BFAD5ED0A7A60EE2A9A87EEC9
:10D1B0008A0A30EE080A04F061FA7B1C07EE903A06
:10D1C000B0EE697AF8EEE77A90EE2A7ABE1CB600E5
:10D1D000304687EE27BA019301F0EEFE68EE898AA9
:10D1E000834600284ED0824601460022019B93428E
:10D1F00039DA304601F0E0FE064600283FD081468D
:10D2000001460022019B93423EDA08FB07F292009E
:10D210001046019201F0D0FE019AA062002847D189
:10D22000584601F0D7FE30462AE09FED4C8AD4F8EC
:10D23000088008F1FF39B045A0DD07EE906A07EEDF
:10D24000109AF8EEE77AB8EEC70A67EE887A87EEAA
:10D25000800A04F019F9F0EE497AE0EE497A0136D5
:10D26000E7EC017AE7E707EE902AB8EEE77AF0EE0E
:10D27000697AEBEE077A0132E1EC017AB6E75846BB
:10D2800001F0A8FE002021E7FAEC010AB2EE040A40
:10D29000C0EEAA0ACDE9022104F026FA30EE480ACF
:10D2A00020EE0A0A0399029AA1EC010A0132A9E7C9
:10D2B000002105F036FE0022DFED294A9446B7EE44
:10D2C000004A08F1FF3A674530DC584601F082FE1B
:10D2D000304601F07FFED5E9068908FB09F08000A1
:10D2E00001F06AFEE0620028CCD007EE908AF8EEEA
:10D2F000E79A88EE290A04F097FAF0EE408AB0EE39
:10D30000000A80EE290A04F08FFA0027B0EE408A66
:10D310003D46DFED14AAA94540F38E80002D4FF065
:10D32000000608FE88AA4FEA870A80E099ED006AA5
:10D330000021D9ED016AD9ED025A09F104094FEA39
:10D34000820E884512DC0CF1010C4244BBE700BFA1
:10D3500000007A4400002F4400302245DB0FC94012
:10D36000CCBC8C2BDB0F49400000000007EE90AADC
:10D37000B8EEE75A07EE901AB8EEE77AC7EE057AEC
:10D3800067EEA87AB4EEE76AF1EE10FA1FD8F4EE71
:10D39000E76AF1EE10FA1ADB77EEC67A36EEC65A75
:10D3A00035EE245A87EE857AB5EEC07AF1EE10FAA2
:10D3B000A06A70441DD4B4EE487AF1EE10FA34FE3F
:10D3C000077A80ED007A01310EF1040EB9E7F4EE30
:10D3D000E76AF1EE10FA09D8F4EEE75AF1EE10FA26
:10D3E00004DB75EEE77A35EEE65AD9E71FED227ACF
:10D3F000DAE71FED237AE4E707EE906AF8EEE77AC2
:10D4000007EE105A77EE897AB8EEC70A67EEAA7A65
:10D4100027EE800A80EE290A04F036F820EE0A0A88
:10D42000E36A0136534483ED000A0AF1040AB04569
:10D43000E2DC013547446EE7012047E62DE9F04F75
:10D440002DED068B89B00C4683460293002800F030
:10D45000AF81002900F0AB81002A00F0AE81002BE3
:10D4600000F0AD814B69B2F90010DFEDC46A07EE40
:10D47000901AF8EEE77A67EEA67AC3ED007A0123F8
:10D4800021688B4219DB00279FEDBD9A3E46DBF8F1
:10D490001C30E56B0193B5422CDC0027DFEDB98A27
:10D4A000019B4FEA8308019BBB4240F37381BE009E
:10D4B00031460022DFEDB47A2FE11146B1F90010B8
:10D4C000B2F9020007EE901AF8EEE77A06EE100ABB
:10D4D00027EEA67ADBED087AB8EEC66A67EEC77A61
:10D4E000E6EE267A6569023205EB8305C5ED007A22
:10D4F0000133C5E74FF0000CE36873439B00A1685C
:10D50000A2698C451EDB4FF0000C9FED9F7A636B88
:10D510000393DBF80CA0D4451EDB4FF00008236A10
:10D520000AEBDA7904934FEA6903D4F8249005935F
:10D53000059B43455ADB9FED948A0022F0EE488A12
:10D54000049946E0616902EB8C02194409680CF108
:10D55000010C11600433D2E7A1684FEA8C0E6145DB
:10D56000C1BFE169D2ED006A7144D1ED007AD4BF48
:10D57000F0EE477A67EEA67A236A0CF1010C734449
:10D58000C3ED007A0432C4E707EE908A07EE102A52
:10D59000F8EEE77AB8EEC77A67EE897A67EE877AAF
:10D5A00007EE10AAB8EEC77A87EE87AAF1EC019AC7
:10D5B000B0EE4A0A0792069103F066FFE9EE808A10
:10D5C000B0EE4A0A03F0D6FFA9EE808A079A0699C0
:10D5D00001329245D8DC28EE080AA8EEA80A04F029
:10D5E00023F908F10108A9EC010AA1E74FF0000CAA
:10D5F00061462069DBF81880884524DCD4F8209047
:10D600004FF0000A4B469FED618ADFED618AF2EE32
:10D61000049ADBF81810226B514533DCDBED0B7AF2
:10D620004B4638EE678A0022914249DC039B03EBAC
:10D63000870C00231946DBF81C2091424DDB019B2F
:10D6400001361F4427E74FF000099FED4F7AA36A88
:10D6500003EB8C03484507DC236B844403EB810315
:10D6600083ED007A0131C7E7626AF3EC016A02EBED
:10D670008902D2ED007A67EEA77A09F10109A7EED7
:10D68000A67AE7E7B2EC010AB5EE400AF1EE10FA2D
:10D6900098BFB0EE680ACDE90513049203F0EEFFDF
:10D6A000DDE9042120EE290AB4EE480AF1EE10FA71
:10D6B000069B30FE088AA3EC010A0AF1010AABE7D7
:10D6C000D3ED007AB4EEE78AF1EE10FA02F101022E
:10D6D000C8BF83ED008A0433A6E7CA464FF0000EA8
:10D6E000DFED297AE26A02EB8302F04504DCECEC20
:10D6F000017A013143449EE7F2EC016ABAEC017A07
:10D700000EF1010EE6EE877AEFE7636B01320B4410
:10D7100093ED007A77EE877A41449542F5DC07EE87
:10D72000105AB8EEC70A314687EE808A00229FED74
:10D73000167A95420ADC87EE000A04F075F800229A
:10D7400030EE280A95420CDC0137ACE6636B0132FF
:10D750000B44D3ED007A77EEC87A4144A7EEA77A5E
:10D76000E7E7636B01323344D3ED007A77EEC87A92
:10D7700087EE807A464483ED007AE3E700000038C4
:10D78000DB0FC9C0BD37863500000000CAF249F181
:10D79000FFE6DB2E636B029A1360189B03B11D60DA
:10D7A000199B13B11A46019B1360012000E0084643
:10D7B00009B0BDEC068BBDE8F08F1046F8E7029883
:10D7C000F6E700BF00000000F8B5F0EEC07A2DEDDE
:10D7D000028B044617EE900AB0EE408A17680D4699
:10D7E0000E69FEF7C9FD12A3D3E90023FEF77CFE04
:10D7F0000346B8B1A26800212068920005F091FBB1
:10D80000BDEC028B7E432068AA68296800EB860085
:10D810009200BDE8F84005F05DBB02EB830282EDAB
:10D82000008A0133A16822689942F6D8E8E700BF70
:10D830008DEDB5A0F7C6B03E2DE9F04F2DED028B72
:10D84000154689B0826808EE103ADDE91476169B19
:10D8500004468A46920000210068079305F061FBA8
:10D86000002290469346E368039323690293DAF813
:10D87000103000937B430593009B73430493039BF9
:10D880009B4542D0930000260693CDF8048029E002
:10D8900020686B6900EB0E092869D9ED007A00FB5E
:10D8A000067003FB00C02B680CF1010C03EB800039
:10D8B000DAF80030D0ED006A0B4493ED007AE6EE22
:10D8C000877AC9ED007A0EF1040E029B9C45DFD1E8
:10D8D00001370431009B9F420BD10199049B013613
:10D8E00019440191E968B14208D9019B00279900C8
:10D8F000F0E74FF0000CDDF818E0E6E7059B0BF1D0
:10D90000010B9844029B1A44B9E718EE101A2046FE
:10D91000FFF7CAF8DDED077A17EE903AA1682068A4
:10D9200009B0BDEC028BBDE8F04F18470C21054A49
:10D9300092F83D304B43D118D35C0BB9486870471F
:10D9400000207047800D071038B50C4D0A4695F839
:10D950003D4028B10C2303FB0453596805F0BAFA83
:10D960000C23012263431444E4B2042CEA540ABF9A
:10D97000002385F83D4085F83D3038BD800D071007
:10D98000094A92F83E1069B90C2092F83C3058438D
:10D990000133DBB2042B115402D082F83C307047C3
:10D9A00082F83C10704700BF800D07100C21084B17
:10D9B00093F83C204A4399189A5C22B100224868A7
:10D9C00083F83E2070470122586B83F83E20704751
:10D9D000800D0710064B93F83E200AB1986B7047F4
:10D9E0000C2193F83C2001FB02339868704700BF7C
:10D9F000800D071037B5214B04465B69D8031AD553
:10DA0000636A228DD9064FEA820208D023F01F01F3
:10DA1000013B134423F01F0320335A1A0B46BFF374
:10DA20004F8F16481344002AA3EB020121DCBFF3F9
:10DA30004F8FBFF36F8F6178114B20789847FFF7B6
:10DA40009FFFFFF7B3FF0190FFF7C4FF0546019A60
:10DA5000617820780B4B984761782078AA080A4BA8
:10DA60009847012261782078084B03B0BDE8304028
:10DA70001847C0F85C12203AD5E700BF00ED00E07F
:10DA8000A5BD1010B9C2101009C3101091BF10101D
:10DA9000B0F5FA5FF7B51CD0B0F5FA4F14BF052505
:10DAA0000325374B0120B1FA81F498474FF04141EB
:10DAB00001220846334FB847334901220846B84788
:10DAC000EB1E6409042B07D8DFE803F005065606B1
:10DAD00058000725E5E70C26304603F02FFB02230C
:10DAE00022462846002100F09FF8284D00212120E1
:10DAF000A84700212220A847254D0C212120A84716
:10DB00000C212220A847234B234A01255A63802257
:10DB10009A6300224FF4007020499A8783F83E20D0
:10DB20000132042AC3E901101D7001F5007103F1EF
:10DB30000C03F5D100261A4D1A4B28469847294662
:10DB400019481A4BAC602E60984701211648184BB3
:10DB500098470121174B14489847FFF727FF0446C1
:10DB6000FFF738FF144ACDE9004011463046134B09
:10DB7000134CA04703B0F0BD1826ADE73026ABE745
:10DB8000CD1A3F02390011100000084099CF101043
:10DB9000B9CF1010800D0710000507108005071081
:10DBA000D4040710811B3F0200080140D51B3F022F
:10DBB000751C3F02B11B3F02800407106DE33E025B
:10DBC000991C3F0208B5FFF7B1FE00B908BD00215E
:10DBD0000846FFF7B9FEF6E7FFF7A8BEFFF7B4BEA9
:10DBE0000904064A41EA002040F00100044B10609D
:10DBF0001168C90701D5013BFAD170470000014007
:10DC0000A0860100064A000240F01000106005489E
:10DC10001368D90602D50138FAD17047180C70473D
:10DC200000000140A08601002DE9F34717464FF0A0
:10DC300090421D468846D2F84433116923F0FE0312
:10DC400049014CBF43F0540343F0D00315F01004D6
:10DC50000646C2F8443340EA001959D04FF4216116
:10DC60001220FFF7BDFF4FF421611520FFF7B8FF29
:10DC70001B20FFF7C7FF40F0070081B21B20FFF712
:10DC8000AFFF1B20FFF7BEFF40F0100081B21B204A
:10DC9000FFF7A6FF41F6BF711820FFF7A1FFFB2099
:10DCA000FFF7B0FF40F0020081B2FB20FFF798FFC2
:10DCB0001120FFF7A7FF20F4005141F4805189B2F1
:10DCC0001120FFF78DFF1420FFF79CFF20F4005177
:10DCD00041F4805189B21420FFF782FF1820FFF72A
:10DCE00091FF6FEAC0406FEAD04081B21820FFF781
:10DCF00077FF17211B20FFF773FF49461720FFF717
:10DD00006FFF8021102002B0BDE8F047FFF768BF29
:10DD10000320FFF777FF20F4406141F40061032006
:10DD200089B2FFF75DFF15F0080A4AD01820FFF707
:10DD300069FF40F03F0081B21820FFF751FF2046F5
:10DD4000FFF760FF00F4406040F4467141F00301CA
:10DD50002046FFF745FF40F2FC710120FFF740FF2E
:10DD60000220FFF74FFF00F4E05040F4014141F082
:10DD7000EA010220FFF734FF10210C20FFF730FFEB
:10DD800049F6FC710120FFF72BFF0220FFF73AFF55
:10DD900000F4E05040F4014141F0FA010220FFF7A5
:10DDA0001FFF2046FFF72EFF00F4406040F466712D
:10DDB00041F003012046FFF713FF18210C20FFF765
:10DDC0000FFF15F005042FD00220FFF71BFF20F4F2
:10DDD000C04141F40141022089B2FFF701FF052053
:10DDE00005F0BAF9EA077FD50C20FFF70BFF40F0EA
:10DDF000100081B20C20FFF7F3FE0220FFF702FFB4
:10DE000040F4C06081B20220FFF7EAFE642005F012
:10DE1000A3F90320FFF7F6FE20F0F00141F468714A
:10DE200089B20320FFF7DCFE15F00D0F02D0C820E9
:10DE300005F08AF9BAF1000F20D00020FFF7E2FECA
:10DE400000F4406040F4067141F003010020FFF748
:10DE5000C7FE40F2FC410120FFF7C2FE0220FFF79F
:10DE6000D1FE00F4E05040F4014141F0EA0102200B
:10DE7000FFF7B6FE10210C20FFF7B2FE6CB10020B8
:10DE8000FFF7C0FE40F4606040F0010081B2002066
:10DE9000FFF7A6FE322005F05FF941F6BF711820AA
:10DEA000FFF79EFE46F220311120FFF799FE46F261
:10DEB00020311420FFF794FE64B31220FFF7A2FE76
:10DEC00004461520FFF79EFE24F4C76420F4C76AB9
:10DED000A4B21FFA8AFA092E0ED8DFE806F0BBC0FA
:10DEE0000DB60D0D0D0DBBC00320FFF78BFE00F42A
:10DEF0007F4040F4547194E744F004014AF0040A6E
:10DF00001220FFF76DFE15205146FFF769FE322003
:10DF100005F01AF917211B20FFF762FE494617206A
:10DF2000FFF75EFEFB20FFF76DFE20F0060141F0DB
:10DF3000080189B2FB20FFF753FEFD20FFF762FEC8
:10DF400020F0060141F0080189B2FD20FFF748FEEC
:10DF50002720FFF757FE20F4807081B20FB941F4FB
:10DF600080712720FFF73CFEFA20FFF74BFE20F4DC
:10DF700000704005400D40F48051FA200191FFF7F8
:10DF80002FFEFC200199FFF72BFEAB0740D5112097
:10DF9000FFF738FE344C204040F4A04141F0190115
:10DFA00089B21120FFF71CFE1220FFF72BFE40F074
:10DFB000040081B21220FFF713FE1420FFF722FEA7
:10DFC000204040F4A04141F0180189B21420FFF72D
:10DFD00007FE1520FFF716FE40F0040081B2152061
:10DFE000FFF7FEFD1720FFF70DFE20F4E06141F47E
:10DFF000807189B21720FFF7F3FD1820FFF702FEAA
:10E000006FEAC0406FEAD04081B21820FFF7E8FD08
:10E0100026F00806012E13D11720FFF7F3FD20F498
:10E02000F04141F4006189B21720FFF7D9FD1B20B0
:10E03000FFF7E8FD20F00C0081B21B20FFF7D0FDB8
:10E0400047EA081141F080015CE644F00C014AF017
:10E050000C0A55E744F014014AF0140A50E744F062
:10E060001C014AF01C0A4BE7FEDFFFFF704700006F
:10E0700010B50446094B036001F04CFB214601F04A
:10E0800095FD02F023FB02F015FB2046044B40F8FF
:10E09000043B01F015FC204610BD00BF84F63F0292
:10E0A0006CF63F0210B50446FFF7E2FF204624213C
:10E0B000FEF775FA204610BD10B54FF0200C04464F
:10E0C000084600218AB0CDE90023CDE902C10B4604
:10E0D00002AA216800F012FE0AB010BD0EB403B50A
:10E0E00003AB53F8042B32210193FFF7E5FF02B095
:10E0F0005DF804EB03B070470EB403B503AB53F8FF
:10E10000042B1E210193FFF7D7FF02B05DF804EB4B
:10E1100003B070470EB403B503AB53F8042B2821AA
:10E120000193FFF7C9FF02B05DF804EB03B070473D
:10E1300070B586B000F024FF0121052002F0D4FE66
:10E140000121062002F0D0FE0021052002F0DDFEB4
:10E150000021062002F0D9FE4FF4C8532E4C2F4D5B
:10E1600023604FF448632B6000F032FB4FF0010C4A
:10E170000422C0E904C24FF47A520368C260DB682B
:10E180009847024618B126492648FFF7A7FF00F036
:10E190001FFB03685B699847024618B12249214872
:10E1A000FFF79CFF4FF47A524FF4C8731F48C82101
:10E1B000C0E900234FF400731926C0E902131423A9
:10E1C000C0E9046320230D26C0E90636184B194A1E
:10E1D0000362194B19494362C362002382620363DD
:10E1E000FEF710FF18B916490E48FFF777FF134BDB
:10E1F0000496DB6B4FF47A5203932B681149029318
:10E20000236808480193C82300934FF4C873FFF7AD
:10E2100073FF06B070BD00BFD00D0710CC0D071006
:10E220006CF53F02F4AE07107CF53F02D40D0710E9
:10E2300048E17A3F0000FA450000A04248AA0710D2
:10E240008DF53F02ABF53F022DE9F04F9DB000F098
:10E25000BFFA00F0CDFA00F0BBFA744D744E754F62
:10E2600000F0B6FA0368DB69984710B344F620540F
:10E270002968A1420ADDA1F59A41203949F64022D8
:10E280006B4806EB410104F032FE2C6000F0A0FA6E
:10E29000036839461B6A984758B12C684FF40072DE
:10E2A00006EB4400394604F5807404F013FE2C603C
:10E2B000D6E7DFF8A8A1DFF87891DFF8A4B12A68E3
:10E2C000DAF800309A421FDB00F04AFB002609AB67
:10E2D000019308AB029000934A465946564807AB53
:10E2E000CDE907660996FFF7A9F838B1DDE90834EA
:10E2F000079A1AB1B34201DD0D2C0BD04F4950489B
:10E30000DDE90823FFF706FF01201DB0BDE8F04F4F
:10E3100002F050B800F024FB0222F7230127CDE9D8
:10E320000D231323079980460C910AA914910CA878
:10E3300014A9CDE90F34CDE91572CDE91727CDE940
:10E340001177CDE90A66CDE9197713971B97FEF788
:10E3500085FC149A3B4C116852682160626000F0A1
:10E36000FFFA94ED007AD4ED017AB4EEE77AF1EE9B
:10E3700010FA4CBF39460021334A03901068884296
:10E380001FD0B4EEE77AF1EE10FA116036D53946B7
:10E39000052002F0BAFD3146062002F0B6FD2068E5
:10E3A000FDF7EAFF02460B466068CDE90423FDF75E
:10E3B000E3FFDDE90423CDE9000124492048FFF70C
:10E3C0009BFE00F0CDFA029B029AC01A039B2049E3
:10E3D0000090A3EB0803A8EB02021948FFF78CFE9C
:10E3E0001C4B2C681968641A6200002A04DD10486E
:10E3F00009EB410104F07BFD2C6060E7314605200C
:10E4000002F083FD3946062002F07FFD2068FDF70B
:10E41000B3FF02460B466068CDE90423FDF7ACFF6D
:10E42000DDE90423CDE900010B49C7E78CAA0710F9
:10E43000080E071098AA0710D40D0710EAF53F023E
:10E44000F4AE071090AA071000040710FEF53F0273
:10E4500036F63F02CC0D07101AF63F02D00D07101A
:10E4600048AA071070B51426D0E90053044606FBED
:10E470000356AE4204D0284600F0ACFE1435F8E74F
:10E48000206800F0A7FD204670BD8842F8B504461C
:10E490000D46164616D9904215D2A2F11406751AE9
:10E4A000A1F114072C44B7421CD02CB131462046B0
:10E4B00000F0F9FE337C2374304600F08BFE143EEE
:10E4C000143CF0E70ED0B5420CD02CB129462046C2
:10E4D00000F0E9FE2B7C2374284600F07BFE143507
:10E4E0001434F0E7F8BD00232DE9F041C0E9003312
:10E4F00083604F6804469F420E4624DD4FF01408A7
:10E5000008FB07F000F058FD0546E0B1D4E9001221
:10E5100008FB0212FFF7B9FF206800F05BFD2560E1
:10E52000A760D6E9007308FB0378B84509D03946DF
:10E53000284600F0D2FE3B7C143505F8043C143725
:10E54000F3E7736863602046BDE8F08170B500248E
:10E55000234B244A8CB09A60C3E90044012000F0A8
:10E5600005FC2146012000F01DFCCDE90044029489
:10E5700002F0ACF81C4C05462646694603A8FFF796
:10E58000B2FF03A906A8FFF7AEFF184B06A946F88D
:10E59000043B09A8FFF7A7FF09AA1E21304601F096
:10E5A000E7FB09A8FFF75EFF06A8FFF75BFF104B2C
:10E5B0002562236003A8FFF755FF0E4B236002F08E
:10E5C00085F84FF4165102F071F801F0A3F82146D6
:10E5D00001F0A6FA6846FFF745FF0CB070BD00BF1A
:10E5E000C00D07100000FFFF98AE07106CF63F0249
:10E5F000FCF73F0284F63F02012070476FF077007E
:10E6000070477047002303771846704710B50446DB
:10E610002021FDF7C4FF204610BD08B5C368B3F53F
:10E620007A5F08D0B3F5FA4F05D0B3F5FA5F1CBF97
:10E630004FF47A53C360017AC068FFF729FA0020CB
:10E6400008BD10B50446FFF7BDFA0123002023776B
:10E6500010BD08B5007F20B1FFF7BEFA003818BF23
:10E66000012008BD37B5057F04461DB900252846A1
:10E6700003B030BD0191FFF7AFFA01460028F5D095
:10E680002046019A00F0BAF800210846FFF7A6FAE2
:10E69000EDE7F7B5077F06460D461FB90027384658
:10E6A00003B0F0BDFFF798FA04460028F6D0024602
:10E6B0000146304600F0A2F84FF480730193AB6836
:10E6C00000940BB902F0DCFE69462846EB6801AA0B
:10E6D000984700210846FFF781FAE0E74FF0010C68
:10E6E0000421064AC0E904C14FF48071426000224F
:10E6F0008161034902720160027770470B000C00D0
:10E700009CF63F026FF077007047FFF786BFFFF778
:10E7100098BFFFF777BFFFF79CBFFFF7A3BF0000CD
:10E7200010B50446024B0360FFF76BFF204610BD97
:10E73000CCF63F0210B50446FFF7F2FF2046202139
:10E74000FDF72DFF204610BD10B50446024B0360B7
:10E75000FFF7E6FF204610BDFCF63F0210B5044669
:10E76000FFF7F2FF20462421FDF719FF204610BDD8
:10E7700010B58368044613B103220146984720462A
:10E7800010BD002330B585B002938B6805460C465A
:10E7900033B1022268469847E3680393A368029363
:10E7A00069462846FFF775FF04466846FFF7E0FF15
:10E7B000204605B030BD000010B50446FFF78EFFBF
:10E7C000024B204623600023236210BDFCF63F026B
:10E7D00038B5064D2B683BB92420FDF7DCFE044616
:10E7E00008B1FFF7E9FF2C60286838BDBCAE071000
:10E7F000006A10B10368DB6818477047F8B5074630
:10E80000036886699B680C46154601EB46069847E7
:10E810003B69C3B901226FF07F017B6940009A40D8
:10E8200012B2B44236D2B4F90030044493FBF2F38E
:10E830001BB27F2BA8BF7F238B42B8BF0B46803B08
:10E8400005F8013BEDE7012B17D17A6948F264071F
:10E850001149C2F108024000B4421BD2B4F90030A1
:10E86000044493408B4206DBB3F5004FC8BF3B46E0
:10E8700025F8023BF0E7084BFAE7AC4201D101284A
:10E8800008D04000B44205D2B4F90030044425F861
:10E89000023BF7E7F8BD00BF0180FFFF09B5044860
:10E8A0000068044B03441B689B68029309BD000089
:10E8B000F40307105000000009B504480068044B39
:10E8C00003441B685B69029309BD0000F403071051
:10E8D0005000000009B504480068044B03441B685D
:10E8E0009B68029309BD0000F403071014000000A8
:10E8F00009B504480068044B03441B68DB680293B5
:10E9000009BD0000F40307101400000009B5044815
:10E910000068044B03441B681B69029309BD000097
:10E92000F40307101400000009B504480068044B04
:10E9300003441B689B69029309BD0000F4030710A0
:10E940005400000009B504480068044B03441B68E8
:10E950005B68029309BD0000F4030710000000008B
:10E9600009B504480068044B03441B685B690293C3
:10E9700009BD0000F40307100000000009B50448B9
:10E980000068044B03441B685B6C029309BD0000E4
:10E99000F40307103000000009B504480068044B78
:10E9A00003441B689B6C029309BD0000F40307102D
:10E9B0003000000009B504480068044B03441B689C
:10E9C000DB6C029309BD0000F40307103000000067
:10E9D00009B504480068044B03441B685B6D02934F
:10E9E00009BD0000F40307103000000009B5044819
:10E9F0000068044B03441B685B69029309BD000077
:10EA0000F40307104C00000009B504480068044BEB
:10EA100003441B689B68029309BD0000F4030710C0
:10EA20002400000009B504480068044B03441B6837
:10EA3000DB68029309BD0000F40307102400000006
:10EA400009B504480068044B03441B681B69029322
:10EA500009BD0000F40307102400000009B50448B4
:10EA60000068044B03441B685B69029309BD000006
:10EA7000F40307102400000009B504480068044BA3
:10EA800003441B689B69029309BD0000F40307104F
:10EA90002400000009B504480068044B03441B68C7
:10EAA000DB69029309BD0000F40307102400000095
:10EAB00009B504480068044B03441B681B6A0293B1
:10EAC00009BD0000F40307102400000009B5044844
:10EAD0000068044B03441B689B6A029309BD000055
:10EAE000F40307102400000009B504480068044B33
:10EAF00003441B68DB6A029309BD0000F40307109E
:10EB00002400000009B504480068044B03441B6856
:10EB10001B6C029309BD0000F403071024000000E1
:10EB200009B504480068044B03441B681B6A029340
:10EB300009BD0000F40307101000000009B50448E7
:10EB40000068044B03441B685B6A029309BD000024
:10EB5000F40307101000000009B504480068044BD6
:10EB600003441B689B6A029309BD0000F40307106D
:10EB70001000000009B504480068044B03441B68FA
:10EB8000DB6A029309BD0000F403071010000000C7
:10EB900009B504480068044B03441B681B6B0293CF
:10EBA00009BD0000F40307101000000009B5044877
:10EBB0000068044B03441B685B6B029309BD0000B3
:10EBC000F40307101000000009B504480068044B66
:10EBD00003441B681B6C029309BD0000F40307107B
:10EBE0001000000009B504480068044B03441B688A
:10EBF000DB69029309BD0000F40307101800000050
:10EC000009B504480068044B03441B681B6A02935F
:10EC100009BD0000F40307101800000009B50448FE
:10EC20000068044B03441B681B68029309BD000085
:10EC3000F40307103400000009B504480068044BD1
:10EC400003441B685B68029309BD0000F4030710CE
:10EC50003400000009B504480068044B03441B68F5
:10EC60009B68029309BD0000F40307103400000004
:10EC700009B504480068044B03441B681B690293F0
:10EC800009BD0000F40307103400000009B5044872
:10EC90000068044B03441B685B69029309BD0000D4
:10ECA000F40307103400000009B504480068044B61
:10ECB00003441B689B69029309BD0000F40307101D
:10ECC0003400000009B504480068044B03441B6885
:10ECD000DB69029309BD0000F40307103400000053
:10ECE00009B504480068044B03441B681B6A02937F
:10ECF00009BD0000F40307103400000009B5044802
:10ED00000068044B03441B685B6D029309BD00005F
:10ED1000F40307104800000009B504480068044BDC
:10ED200003441B68DB6E029309BD0000F403071067
:10ED30004800000009B504480068044B03441B6800
:10ED40001B6F029309BD0000F40307104800000088
:10ED500009B504480068044B03441B68D3F8D43059
:10ED6000029309BDF40307104800000009B50448E8
:10ED70000068044B03441B685B68029309BD0000F4
:10ED8000F40307100800000009B504480068044BAC
:10ED900003441B685B69029309BD0000F40307107C
:10EDA0000800000009B504480068044B03441B68D0
:10EDB000DB6A029309BD0000F4030710080000009D
:10EDC00009B504480068044B03441B68D3F8883035
:10EDD000029309BDF40307100800000009B50448B8
:10EDE0000068044B03441B68D3F89430029309BDB8
:10EDF000F40307100800000009B504480068044B3C
:10EE000003441B685B68029309BD0000F40307100C
:10EE10002800000009B504480068044B03441B683F
:10EE20009B68029309BD0000F4030710280000004E
:10EE300009B504480068044B03441B68DB6802936F
:10EE400009BD0000F40307102800000009B50448BC
:10EE50000068044B03441B681B69029309BD000052
:10EE6000F40307102800000009B504480068044BAB
:10EE700003441B685B69029309BD0000F40307109B
:10EE80002800000009B504480068044B03441B68CF
:10EE90009B69029309BD0000F403071028000000DD
:10EEA00009B504480068044B03441B68DB690293FE
:10EEB00009BD0000F40307102800000009B504484C
:10EEC0000068044B03441B681B6A029309BD0000E1
:10EED000F40307102800000009B504480068044B3B
:10EEE00003441B681B6B029309BD0000F403071069
:10EEF0002800000009B504480068044B03441B685F
:10EF00005B6B029309BD0000F403071028000000AA
:10EF100009B504480068044B03441B681B6C02934A
:10EF200009BD0000F40307102800000009B50448DB
:10EF30000068044B03441B685B6C029309BD00002E
:10EF4000F40307102800000009B504480068044BCA
:10EF500003441B685B6D029309BD0000F4030710B6
:10EF60002800000009B504480068044B03441B68EE
:10EF70009B6D029309BD0000F403071028000000F8
:10EF800009B504480068044B03441B68DB6802931E
:10EF900009BD0000F40307102C00000009B5044867
:10EFA0000068044B03441B68DB6B029309BD00003F
:10EFB000F40307102C00000009B504480068044B56
:10EFC00003441B681B68029309BD0000F40307108B
:10EFD0000400000009B504480068044B03441B68A2
:10EFE0005B68029309BD0000F403071004000000F1
:10EFF00009B504480068044B03441B689B680293EE
:10F0000009BD0000F40307100400000009B504481E
:10F010000068044B03441B685B6A029309BD00004F
:10F02000F40307100400000009B504480068044B0D
:10F0300003441B68DB6A029309BD0000F403071058
:10F040000400000009B504480068044B03441B6831
:10F05000DB6B029309BD0000F403071004000000FD
:10F0600009B504480068044B03441B681B6C0293F9
:10F0700009BD0000F40307100400000009B50448AE
:10F080000068044B03441B685B6C029309BD0000DD
:10F09000F40307100400000009B504480068044B9D
:10F0A00003441B689B6D029309BD0000F403071025
:10F0B0000400000009B504480068044B03441B68C1
:10F0C000DB6D029309BD0000F4030710040000008B
:10F0D000002240681146FFF7F1BE00224068114649
:10F0E000FFF708BF00224068FFF7F6BE0022406825
:10F0F00081F00101FFF7D4BE002340681A4619468B
:10F10000FFF7C0BE002340681A461946FFF7ACBEA1
:10F11000002240681146FFF799BE00224068114660
:10F12000FFF778BE002202214068FFF781BE00236E
:10F1300040681A46FFF760BE0322024B5A60024A3B
:10F140001A607047C0AE07102CF73F020B680360CF
:10F150004B68436013B15A6801325A60704738B542
:10F16000046805467CB16368013B63605BB9236852
:10F1700020469B689847A368013BA3601BB923689E
:10F180002046DB689847284638BD00000022024B25
:10F19000C3E900229A607047C8AE071010B5044654
:10F1A00008462170FFF71EFD00232046636010BD56
:10F1B00002220020044B1A60044B054AC3E90000F8
:10F1C0009A60FFF7D3BD00BFE0AE0710D4AE0710C2
:10F1D0000000FFFF10B504460068FFF7FBFE204665
:10F1E00010BD10B50446006808B1FFF7F3FE002318
:10F1F000C4E90133236010BD38B504460D460068EC
:10F200000131FFF7F5FE10B1C4E90005012038BD5A
:10F2100010B50368044623B143688B4201D3012033
:10F2200010BD2046FFF7E8FF0028F9D0A368002BA7
:10F23000F5D122681370F2E737B50D4611460192F9
:10F240000446FFF7E5FF019A28B92046FFF7C9FFFA
:10F25000204603B030BD2946A260206803F03AFE84
:10F2600000212268A368D154F2E738B5054600684A
:10F270000C4670B16A688B689A4208D3096831B14C
:10F2800003F09DFEA368AB600023A36038BDFFF7C9
:10F29000A1FE23682B6063686B60A368AB600023EA
:10F2A000C4E90033F1E7002310B50446C0E9003398
:10F2B00083600373FFF7D9FF204610BD884210B565
:10F2C000044605D00B682BB18A681946FFF7B4FFD6
:10F2D000204610BDFFF785FFFAE7002310B504466E
:10F2E000C0E9003383600373FFF7E8FF204610BDD9
:10F2F00010B543680446013B436063B903689B68EB
:10F300009847A368013BA3602BB923682046BDE85A
:10F310001040DB68184710BD70B50446D0E90053B3
:10F3200005EB0316AE4204D02846FFF753FF103515
:10F33000F8E72068FFF74EFE204670BD0023024824
:10F340000360FFF71BBB00BFE4AE071010B5044617
:10F3500080680368DB689847E3681844E06010BD84
:10F36000F8B506460D4600248F18BD420CD0336810
:10F3700030469B6815F8011B9847031E01DB1C44AF
:10F38000F3E7002C08BF1C462046F8BD704710B5B7
:10F3900004461021FDF703F9204610BD13B50446BD
:10F3A000084659B10191FDF7D1F80246204623687D
:10F3B0000199DB6802B0BDE81040184702B010BDEB
:10F3C00003689B6818470023012A98BF0A2230B5BA
:10F3D0008BB08DF8243009AC0D46B1FBF2F101FB86
:10F3E000125303F0FF03092B94BF30333733DBB2E2
:10F3F000AA4204F8013DEFD92146FFF7CFFF0BB039
:10F4000030BD10B50446FFF7ABFAE0602368204634
:10F410005B699847002808DAFFF7A2FAE368C01A88
:10F42000A3689842F2D34FF0FF3010BD2DE9F041B0
:10F4300007460C460D468E18B542A5EB040807D0CA
:10F440003846FFF7DEFF031E02DB05F8013BF3E75A
:10F450004046BDE8F0817047084611B10B685B6813
:10F460001847704770477047704738B504460D46D7
:10F4700000682E2103F099FD2368C31A2B6023B185
:10F48000037803B1013023682060184638BD10B5F9
:10F4900004460421FDF783F8204610BD10B504464C
:10F4A0000421FDF77CF8204610BDFFF783BA08B5AC
:10F4B000FDF742F8B0FA80F0400908BD704710B57A
:10F4C0000C4601F003F9844205D101F0FFF8BDE8D4
:10F4D000104001F0EFB801F061FD844205D101F068
:10F4E0005DFDBDE8104001F046BB2CB1236820460D
:10F4F000BDE810405B68184710BD13B504460846C8
:10F500000191FDF723F802462046019902B0BDE8BB
:10F51000104001F0C7BA13B5044608460191FDF743
:10F5200015F80246204623680199DB6802B0BDE861
:10F530001040184707B503688DF807100122DB68F3
:10F540000DF10701984703B05DF804FB2DE9F74F73
:10F550004FF0140AD0E90084174645460AFB04F42C
:10F560000093174BA4105C43002C21DD66100AFBAE
:10F5700006F005EB0009B9F804B03A465F4528BF2C
:10F580005A462858019103F022FD00284FF001034C
:10F5900001990BD15F4503D1009A13703446E3E71C
:10F5A000FCD9A61B09F11405013EF7E7F9DBF5E7E5
:10F5B000A5EB08050248AD10684303B0BDE8F08F25
:10F5C000CDCCCCCC7FB50369057E019103B3F9B1F5
:10F5D000002600F10C04039603A901A8FFF745FFDC
:10F5E0000146A8B10DF10B032046039A8DF80B607C
:10F5F000FFF7ACFF9DF80B3053B12368142404FBD4
:10F600000034B4F906300834002BA8BFDDB2E3E7BC
:10F61000284604B070BD0EB4F0B58CB000AF07F151
:10F62000440555F8042B04462B46202107F1100011
:10F630007A60FD60FFF7EAFC1F287A681AD900F1AA
:10F64000080323F007036E46ADEB030D411C2B4668
:10F650006846FD60FFF7DAFC021E04DD2368694698
:10F660002046DB689847B5463037BD46BDE8F040D8
:10F6700003B070470028F7D023680246DB682046B5
:10F6800007F110019847EFE710B5084CD4E88F3F19
:10F69000DB0709D42046FFF7FFFC28B12046FFF71F
:10F6A00009FD034803F008FC024810BDECAE07104A
:10F6B000DDFD3E020404071010B5084CD4E88F3F6E
:10F6C000DB0709D42046FFF7E7FC28B12046FFF707
:10F6D000F1FC034803F0F0FB024810BDF0AE071048
:10F6E00035FE3E020804071038B500250446C0E97F
:10F6F0000055C0E904558560856140F8245FFFF737
:10F700003DF9FFF7C1FFE061FFF7D6FF25732062E7
:10F71000204638BD10B50A4CD4E88F3FDB070CD427
:10F720002046FFF7B9FC40B10648FFF7DDFF204651
:10F73000FFF7C0FC044803F0BFFB024810BD00BF48
:10F74000E8AE0710F8AE071001063F020023024A98
:10F7500002490348FFF7EEBAE9033F0275033F028F
:10F76000F5023F0200231A4619461846FFF7E2BA8F
:10F7700037B504468D686846FFF7E8FC6A462946B7
:10F78000204601F0AFF801A8FFF7E9FC204603B0DE
:10F7900030BD37B50446CD686846FFF7D7FC6A46EA
:10F7A0002946204601F07AF801A8FFF7D8FC204648
:10F7B00003B030BD37B504460D696846FFF7C6FC97
:10F7C0006A462946204601F012F801A8FFF7C7FC57
:10F7D000204603B030BD000070B58AB00D4601462A
:10F7E00004A8FFF7C5FF144E04A801F093F8E8B190
:10F7F000684604A9FFF7CDFF31460298FFF757FE90
:10F80000044610B12C1E18BF012401A8FFF7A7FC65
:10F81000002CE9D0684604A9FFF7CCFF684601F048
:10F820001CF8286001A8FFF79AFCDDE705A8FFF7A0
:10F8300096FC0AB070BD00BF80F73F0237B50C469A
:10F84000134920461546FCF777FE50B900F03EFFFD
:10F850004FF4165100F02AFF03B0BDE8304000F02D
:10F8600035BF20460B49FCF767FE78B94FF41653B5
:10F8700001A928460193FFF7AFFF01F08FFB019923
:10F8800001F076F901F08AFB03B030BD0020FBE700
:10F8900085F73F028CF73F0270B51426D0E900537C
:10F8A000044606FB0356AE4205D005F10800FFF7FB
:10F8B000F3FF1435F7E72068FFF78CFB204670BD97
:10F8C00010B504460C30FFF7E7FF2046FFF724FD94
:10F8D000204610BD10B50446034B40F8043BFFF72B
:10F8E000EFFF204610BD00BF6CF63F0210B5044686
:10F8F000FFF7F0FF20462421FCF751FE204610BD03
:10F9000010B50446024B0360FFF7E4FF204610BD2C
:10F9100014F83F0210B50446FFF7F2FF20462421F9
:10F92000FCF73DFE204610BD0A6810B502604A682B
:10F9300042600022C0E9022202618C688A60846011
:10F94000CC68CA60C4600C690A61046110BD002201
:10F95000C0E90022826010B50C680A6004604C683F
:10F960004A6044608C688A60846010BD10B50446AB
:10F9700003681868FFF72CF8204610BD2DE9F04FFA
:10F9800087B003931C4B80465B688946C3F308032A
:10F9900016466BB9FFF7BEFE044600F12403406A29
:10F9A0000593FFF782FD237B2BB105A8FFF7DEFF50
:10F9B00007B0BDE8F08F01235FFA89F92373D4E91A
:10F9C000005305EB830AAA4512D055F8047B314653
:10F9D000381DFFF7F7FD8145F5D3039A3B68009288
:10F9E000D3F808B04A46334641463846D847EAE796
:10F9F00000232373D9E700BF00ED00E02DE9F74FA6
:10FA00009B461A4B80465B688946C3F3080316463B
:10FA10006BB9FFF77FFE044600F12403406A0193AF
:10FA2000FFF743FD237B2BB101A8FFF79FFF03B036
:10FA3000BDE8F08F0123F6B22373D4E9005305EB40
:10FA4000830A55450ED055F8047B5946381DFFF7FB
:10FA5000B9FD8642F5D33B684A4641463846DB68E5
:10FA60009847EEE700232373DEE700BF00ED00E0D8
:10FA70002DE9F341164B05465B680F46C3F30803B7
:10FA80001BBBFFF747FE044600F12403406A0193C5
:10FA9000FFF70BFDD4E90063462406EB8308B0456D
:10FAA00009D101A8FFF762FFA542B4BF00200120E1
:10FAB00002B0BDE8F08156F8040B39460430FFF778
:10FAC00081FD8442A8BF0446E9E70020F0E700BFBB
:10FAD00000ED00E0F8B5D0E901539D4204460E4622
:10FAE0000DDB6F1C002F006804DDB900FFF780FA02
:10FAF00018B9F8BDFFF76EFA00202060A7602768EC
:10FB0000626807EB85019200A2EB8502081D03F0F5
:10FB1000EEF947F825606368012001336360E8E788
:10FB200037B5044600F12403406A01930D46FFF700
:10FB3000BCFCD4E9003203EB8202934219460AD09E
:10FB400009680433A942F8D101A8FFF70FFF002587
:10FB5000284603B030BD29462046FFF7BBFF0546C7
:10FB60000028F1D06368012B01D1FFF7EFFD01A858
:10FB7000FFF7FCFEECE70B4670B50446D0E9000247
:10FB800000EB820282420FD001461D6851F8046BDF
:10FB9000AE4207D1521A03F0AAF901206368013B73
:10FBA000636070BD0846EDE70020FAE71FB5044624
:10FBB00000F12403406A01910393FFF776FC20468D
:10FBC00001A9FFF7D8FF18B163680BB9FFF7CAFDA9
:10FBD00003A8FFF7CBFE04B010BD182370B5044690
:10FBE000D0E9045603FB0656AE4215D0204605F177
:10FBF0001001FFF7C0FF63680BB9FFF7B3FDE069C1
:10FC000029690368DB689847696919B1206A036844
:10FC1000DB6898471835E7E71826D4E9045306FB54
:10FC20000356AE4204D02846FFF7D4FA1835F8E759
:10FC30000023636170BD73B50446FFF793FD04F1C3
:10FC40002403606A0193FFF730FC2046FFF7C5FFED
:10FC500001A8FFF78BFE606A08B1FEF79DFED4E9AC
:10FC60000453182606FB0356AE4204D02846FFF77D
:10FC7000B1FA1835F8E72069FFF7ACF92068FFF70B
:10FC8000A9F9204602B070BD0148FFF7D4BF00BFFC
:10FC9000F8AE07108842F8B504460D46164615D949
:10FCA000904214D2A2F11406751AA1F114072C4443
:10FCB000B7421AD01CB131462046FFF735FE06F197
:10FCC0000800FFF7E9FD143E143CF1E70DD0B54202
:10FCD0000BD01CB129462046FFF726FE05F108008F
:10FCE000FFF7DAFD14351434F1E7F8BD8842F8B5B2
:10FCF00004460D46164614D9904213D2A2F11006BE
:10FD0000751AA1F110072C44B74218D01CB1314626
:10FD10002046FFF7C8FA3046FFF75CFA103E103C69
:10FD2000F2E70CD0B5420AD01CB129462046FFF7B5
:10FD3000BAFA2846FFF74EFA10351034F2E7F8BD4C
:10FD400070B50E1E054611DD3001FFF735F904468A
:10FD500058B1D5E9001201EB0212FFF7C7FF28687E
:10FD6000FFF738F901202C60AE6070BD0024F6E783
:10FD70002DE9F04F90460023462295B00391D8F824
:10FD8000041004469942C0E90033C0E90233C0E9D7
:10FD90000433CDE9083302760A9323DCD8E900570F
:10FDA000142303FB0757AF423BD029460BA8FFF7AC
:10FDB0007AFA0BA90FA8099EFFF775FADDE9091376
:10FDC00099421BDA089B099A03EB0616314603EBAE
:10FDD000021206F11000FFF789FFEEB9099B01330B
:10FDE000099311E008A8FFF7ABFF0028D6D108A8B7
:10FDF000FFF792FA204615B0BDE8F08F013108A850
:10FE0000FFF79EFF0028DDD10FA8FFF7E3F90BA84D
:10FE1000FFF7E0F91435C6E730460FA9FFF743FABC
:10FE2000DCE700264FF01409CDE90B660D96DDE9FD
:10FE300008239E427CDA3301D35806930BB901366E
:10FE4000F5E70023079309FB06F30BAD029307A91F
:10FE500006A8FFF70AFB82460028F0D04FF0000307
:10FE600001468DF817302846079A0DF11703FFF762
:10FE70006DFB9DF817700190002F4AD1BDF81C3022
:10FE8000CDE91177ADF840304FF6FF73CDF83CA0C7
:10FE9000ADF842301397D5E90132934217DB03F1F5
:10FEA000010ABAF1000F30DD09FB0AF0FFF784F810
:10FEB000834660B3D5E9001209FB0212FFF7EAFEA0
:10FEC0002868FFF787F8C5F800B0C5F808A02B68C8
:10FED000019A09FB023A6A68514609FB02320AF1AB
:10FEE0001400FFF7D7FEBAF1000F03D050460FA958
:10FEF000FFF71AFD6B6801336B6011A8FFF7CCFCAC
:10FF00003FB10BA8FFF7C8FC71E7BB46D8E7012754
:10FF1000F3E7019B2D6809FB0355069B1B782BB962
:10FF2000D8F80030029A13441B7CEB8008358EE72A
:10FF30002168226062686360A36809920A9A0A9342
:10FF4000E368A2600B9A0B932369E2600C9A0C930E
:10FF5000636922610D9A0D93039B08916261237678
:10FF6000CFE70000F0B504462646174687B00D4699
:10FF700068461946FEF7B7FA0B4B694646F8043B4C
:10FF800003A8FEF7B0FA394603AA3046FFF7F0FEA1
:10FF900003A8FEF767FA6846FEF764FA2046034BAB
:10FFA0002562236007B0F0BD6CF63F02FCF73F020C
:10FFB000F0B50F4685B038461C4916461D460A9CCA
:10FFC000FCF7BAFAC0B9A4B1294601A8FFF7BFFCF3
:10FFD0002420174901F050FA054630B101AB3246F2
:10FFE0002146FFF7BFFF134B2B6001A8FEF73AFA3B
:10FFF0002C46204605B0F0BD38460F49FCF79CFA68
:02000004085F93
:1000000090B9002CF5D0294601A8FFF7A0FC2420C8
:10001000074901F031FA05460028E6D0324621466C
:1000200001ABFFF79FFFE0E70024E2E794F73F0210
:10003000E7F93F0214F83F0298F73F02014B024AEA
:100040001A607047F4AE0710A9F73F022DE9F04798
:10005000089DD0F8209004460E461746984600F0BA
:1000600035FB81454DD02B79190704D520466A69A7
:100070005449FFF7D0FAB8F1000F0DD05B212046AC
:10008000FFF758FA41462046FFF745FA2368022257
:100090002046DB684C4998472B79DA0724D5D5F8F8
:1000A00008802F21404602F0A6FF08B100F10108A8
:1000B00041462046FFF72FFA2B799B0708D53A21B6
:1000C0002046FFF737FA2046EA684049FFF7A3FACF
:1000D0002A79236812F0040F20464FF00202DB68F1
:1000E00014BF3B493B4998472B7958071DD52969CF
:1000F0000B461A4613F8010B60B1202808D11946A7
:10010000F7E7354800F00BFE0028ACD0BDE8F087DB
:100110002828EED12368521A2046DB6898472368C6
:1001200004222046DB682D49984700213846FEF717
:10013000F3FD01462046FFF7EEF923680222204630
:10014000DB68244998471EB131462046FFF7E3F9A2
:100150002B7913F0300F2CD023682149DB68022261
:10016000204698472B79D9060AD5236807222046CE
:100170001C49DB6898472046AA691B49FFF74BFAE0
:100180002B799A0611D5DB0605D523680222204675
:10019000DB680F4998472368204614490A22DB6828
:1001A00098472046E969FFF7B6F95D212046FFF739
:1001B000C1F923682046BDE8F0470222DB680C49FC
:1001C000184700BFADF73F02B4F73F02E7F53F0223
:1001D000B7F73F02BCF73F0270AF0710BAF73F0214
:1001E000BFF73F02C2F73F02CAF73F02CDF73F0217
:1001F000D8F73F022DE9F0410446076A0D4616463E
:1002000000F064FA874207D0206A32460368294624
:10021000BDE8F041DB681847034800F080FD002886
:10022000F2D0BDE8F08100BF70AF07102DE9F043B8
:1002300085B0D0F8209005460F4690461E460C9C8F
:1002400000F044FA814505D1494800F068FD0028D6
:1002500040F08A804FF000092B6A464A6846CDE993
:10026000023900928DF8049000F07DFB494640462B
:10027000FEF752FD804640490122684600F002FC2C
:100280004146FFF73AF93FB13C490122684600F088
:10029000F9FB3946FFF731F93EB139490122684689
:1002A00000F0F0FB3146FFF728F92379DF070ED580
:1002B000A6682F21304602F09EFE00B1461C31494F
:1002C0000122684600F0DEFB3146FFF716F923797C
:1002D0009E0707D52C490222684600F0D3FBE1684F
:1002E00000F04EFB2379580714D5266933461F4684
:1002F00013F8012B2AB1202A01D11E46F7E7282A3C
:10030000F5D102222149684600F0BCFB3146BA1BF8
:1003100000F0C8FB2379190707D51D49012268465B
:1003200000F0B0FB616900F03DFB2379DA0607D5E8
:1003300018490422684600F0A5FBA16900F020FBE3
:1003400023799B0607D514490622684600F09AFBDC
:10035000E169FFF7D2F8684600F0EFFA286A022256
:1003600003680E49DB68984705B0BDE8F08300BF1D
:1003700070AF071070F73F028AF73F02DBF73F02CA
:10038000C6FE3F02DDF73F02DFF73F02E2F73F0222
:10039000E5F73F02E7F73F02ECF73F02D8F73F02ED
:1003A000024B1A68024B1A60704700BF0C0407101A
:1003B00020AF07100021FEF7E7BC00000022014B30
:1003C0009A60704724AF0710014B1860704700BF58
:1003D0001404071008B50F4B43B100F077F9036818
:1003E0001B699847002801DD00E000BF0A4B43B1BC
:1003F00000F0D4FD03681B699847002801DD00E088
:1004000000BF064B0BB100F00FFE054B0BB100F027
:1004100041FE08BD000000000000000000000000D8
:100420000000000008B5FFF7D5FFFEF799FA014B71
:10043000186008BDCCAF07100548064A08B5121A67
:10044000054902F047FD054B054A1A6008BD00BF8B
:1004500000B4071004B4071004F75F0800B40710D5
:100460001E1C279A002307B51A466FF077010093E8
:10047000FEF7B4FC03B05DF804FB000007B5438849
:100480000A2B08D0502B0BD1094B1B684BB103B082
:100490005DF804EB1847FFF7E5FF03B05DF804FBD8
:1004A00000231A466FF077010093FEF797FCF4E7FC
:1004B00038AF0710002110B51148FEF7DFFD114BD2
:1004C0001A68114B9A420CBF012200220F4B1A707E
:1004D00001D0FFF7B1FFFEF735FA044602F02AFD1E
:1004E0000B4B13B1204600E000BF00210848FEF787
:1004F00055FDBDE8104000210648FEF761BC00BF75
:10050000410D3F0200B407101E1C279A34AF07109C
:1005100000000000F50D3F02704710B50446182199
:10052000FCF73DF8204610BDF0B5037D0E46062BC6
:100530004FF000048DB000F1040712D000F108055F
:1005400015F8011D0A223046FEF73DFFAF42044474
:1005500019D0002CF4D02E213046FEF731FF044490
:10056000EEE72F236A4639460A208DF80040FEF751
:100570003DFA6846FBF7EAFF3368024669463046B3
:10058000DB689847044620460DB0F0BD10B5044620
:10059000044B1122002140F8043B02F0C2FC20462B
:1005A00010BD00BF78F83F020346074A10B543F874
:1005B000042B01F1100251F8044B914243F8044B13
:1005C000F9D10A781A7010BD78F83F0210B59DF87D
:1005D000084044EA032343EA0242042342EA016159
:1005E0004160037510BD000007B5064B0360CB7872
:1005F00000938B784A780978FFF7E8FF03B05DF83D
:1006000004FB00BF78F83F024174704770477047A1
:1006100008B50021007CFEF747FB40EAE07008BD0A
:1006200008B50121007CFEF73FFB40EAE07008BD01
:1006300008B5007CFEF72AFB20EAE07008BD08B58B
:10064000007CFEF715FB20EAE07008BD13B50446F8
:10065000007C0191FEF71AFB0028019901DC607C07
:1006600020B1207CFEF72EFB20EAE07002B010BD26
:10067000007CFEF735BB10B504461421FBF78FFF55
:10068000204610BD10B54FF47A7304460846002189
:10069000C4E90113044B20742360012311466374E1
:1006A000FEF7BCFA204610BD8CF83F020022007C09
:1006B000FEF7C2BA007CFEF7CDBA10B5044614228C
:1006C000002102F02EFC204610BD000010B588B0BD
:1006D00003A8FFF7F2FF0C4CD4E88F1F11F00101C3
:1006E0000FD120460191FEF7D7FC019948B103AA2A
:1006F0000648FFF7C7FF2046FEF7DCFC044802F07F
:10070000DBFB024808B010BD3CAF071040AF07103C
:10071000850F3F02012200F1100313F8101C184648
:10072000012908D153F8041C02EB4102013A03F1FC
:100730001003F2D17047022904BF53F8041C521869
:10074000F4E70EB4F0B588B0102100AF07F134051E
:1007500055F8042B04462B4678187A60FD60FEF7A6
:1007600055FC0F287A681AD900F1080323F0070313
:100770006E46ADEB030D411C2B466846FD60FEF74F
:1007800045FC021E04DD2368694620469B689847A5
:10079000B5462037BD46BDE8F04003B0704700289D
:1007A000F7D0236802469B68204607F1100198475E
:1007B000EFE738B50B68044603604D6843689D4217
:1007C00008D015B16B6801336B60606808B1FEF743
:1007D0008FFD656038BD07B503688DF807100122ED
:1007E0009B680DF10701984703B05DF804FB0B46C9
:1007F0001146002210B50446C0E9002283600BB9FF
:10080000204610BDFFF7D5FFFAE78368EBB11A78F1
:10081000032A1AD8DFE802F00417021B05207047EC
:1008200002685B685268D05C2D2812D0A0F13003BA
:10083000092B0ED974280ED066280CD0A0F16E03B7
:1008400058425841704706207047002070470420E6
:100850007047032070470220704710B50446FFF729
:10086000D4FF02280ED0C31EDBB2012B14D822689D
:10087000A36850685B680A22BDE810400021184454
:1008800002F050BC2268A36852685B68D05CA0F19B
:1008900074035842584110BD0020FCE738B50023CE
:1008A0000446C0E900330E48C4E90203A9B10B783D
:1008B000032B06D08BB9136858684B68C35C6E2B4A
:1008C00007D013684D6858688B6828445B1BA0608C
:1008D000E36011462046FFF76CFF204638BD00BF9D
:1008E000DAF73F0238B500250B4604461146C0E949
:1008F0000055C0E90255C0E904554BB11A78012AE8
:1009000006D103F11002DB6882604361FFF751FFFB
:10091000204638BD10B54369044663B18068013B89
:10092000E0601030A0602061636113B1FFF7F2FE58
:10093000A060012000E0184610BD10B57D210446DE
:10094000FFF749FF01232046237110BD08B5037945
:10095000012B02D0022B04D008BD2C21FFF73BFF56
:10096000FAE73A21FAE710B50446FFF7EFFF204611
:100970007B21FFF730FF00232046237110BD0000CC
:1009800013B504460191FFF7E1FF23682046DB68B9
:10099000019A0349984701232046237102B010BDF4
:1009A000E7F53F0213B504460191FFF7CFFF236837
:1009B0002046DB68019A03499847012320462371AA
:1009C00002B010BDB8F83F022DE9F0470D46904641
:1009D000222104462F46FFF7FEFEDFF8A490A8442C
:1009E0004745BA463DD017F8016B222E06D05C2E43
:1009F00004D0304602F066FA0028F1D12368294677
:100A000020469B68AAEB050298475C212046FFF729
:100A1000E2FE0D2E0AD8072E1CD9A6F10803052BDD
:100A200018D8DFE803F00D0F11171315222E01D08F
:100A30005C2E0FD131462046FFF7CDFE3D46CFE775
:100A40006221F8E77421F6E76E21F4E76621F2E708
:100A50007221F0E72368324649462046DB68984712
:100A6000ECE7BD4205D02368294620469B687A1BE7
:100A7000984722212046FFF7AEFEBDE8F08700BF71
:100A8000BBF83F0213B50446CDE90021FFF75EFF36
:100A9000DDE900212046FFF797FF0223204623715E
:100AA00002B010BD13B50446CDE90021FFF74EFF9B
:100AB000DDE900212046FFF787FF0123204623714F
:100AC00002B010BD70474174704708B5007CFDF757
:100AD000FDFF20EAE07008BD08B5007CFDF7B0FF1F
:100AE00020EAE07008BD08B5007CFDF7C5FF40EACC
:100AF000E07008BD08B5007CFDF7B0FF40EAE0708B
:100B000008BD007CFDF7C6BF37B5457C04462DB156
:100B1000207C03B0BDE83040FDF784BF007C01912C
:100B2000FDF7D4FF00280199F2DC284603B030BD60
:100B300010B504461421FBF732FD204610BD00001D
:100B400010B54FF47A730446084611460022C4E9F2
:100B50000123044B2074236001236374FDF7D2FF4B
:100B6000204610BDCCF83F020023007CFDF7BCBF3F
:100B70000022FFF7F9BF007CFDF746BF007CFDF7C0
:100B800097BF7047F8B5064615460C468F18BC420D
:100B900006D0336830469B6814F8011B9847F6E787
:100BA0002846F8BD0022007CFDF7BABF0021007C7A
:100BB000FDF7C4BF0021007CFDF7CEBF0021007C03
:100BC000FDF7D8BF0021007CFDF7E2BF10B5044659
:100BD0001421FBF7E4FC204610BD000038B50446A4
:100BE00015464FF47A730022C4E90123094B0846E5
:100BF000217423602946FDF7E7FFBF3008D16B69F8
:100C0000DB0705D56868FEF7E5F9E868FEF7E2F965
:100C1000204638BD00F93F02FF210022044B01208D
:100C2000C3E9001264211A61C3E90201704700BFE1
:100C300054AF0710002240681146FEF707B90022A2
:100C400040681146FEF73AB9002240681146FEF7A7
:100C500051B900224068FEF73FB90022406881F098
:100C60000101FEF71DB9002340681A461946FEF738
:100C700009B9002340681A461946FEF7F5B8002264
:100C800040681146FEF7C6B8002202214068FEF710
:100C9000CFB8002340681A46FEF7AEB80422024BD4
:100CA0005A60024A1A60704768AF07102CF93F0279
:100CB000002340681A46FEF79FB8002202214068D0
:100CC000FEF7B6B8002240681146FEF7A3B800222E
:100CD00040681146FEF7BAB8002340681A46194624
:100CE000FEF7C2B8002340681A461946FEF7CAB894
:100CF00000214068FEF70CB900214068FEF716B9E4
:100D00000022406881F00101FEF7CAB80022406865
:100D1000FEF7E2B8002240681146FEF7EBB8002269
:100D200040681146FEF7CAB800214068FEF71AB9BC
:100D30002DE9F0430026984699B00D461446074623
:100D4000FFF724FC1C22314611A8039602F0E9F8B3
:100D5000B8F1000F2CD1402368681093049618B1A5
:100D600004A9C0B2FDF7E0FD049B204600930021DA
:100D700003AB10AAFDF7A0FD044600284DD10246A2
:100D800001216868FEF762F8022180462246686801
:100D9000FEF75CF821468146039E002E3DD00029D7
:100DA0003BD17368022B05D00A2B13D0F669F4E708
:100DB0001D4BD1E7B8F1000FF8D071690AA80431D2
:100DC0003C1D0BADFFF710FC0FCD0FC42B68414647
:100DD0002370EBE7B9F1000FE8D0102205A8746981
:100DE00002F09FF8062305AD8DF8243004F10803C6
:100DF00018342A4618685968083303C2A3421546B6
:100E0000F7D105A90AA83C1D0BADFFF7CDFB0FCD0F
:100E10000FC42B6849462370C8E70398FDF73EFDD1
:100E2000384619B0BDE8F08340000040033802287E
:100E30009ABF024B53F820000148704768F93F02FF
:100E400070AF071008B500224068FEF77DF8BDE8D6
:100E50000840FFF7EBBF0000024B034A1A60002274
:100E60005A60704770AF07107CF93F021B2837B5F6
:100E7000044602D9002003B030BDA0F10F03022BBD
:100E80000BD9012821D800F035F90021007CFDF7AD
:100E90008DFE80F00100C0B2EDE7114DD5E88F1F47
:100EA00011F001010BD128460191FEF7F5F80199E7
:100EB00028B10C48FEF772F92846FEF7FBF8094BFB
:100EC0001878FDF79DFE0028D4D1083C012C05D8E8
:100ED00000F064F8007CFDF7EBFDDAE70120CAE7DB
:100EE00078AF07107CAF07101B2838B504460D46B5
:100EF0000AD8FF2908D0FFF7B9FF28B129462046B4
:100F0000BDE83840FDF7E6BC38BD38B504460D46AF
:100F1000FDF7EEFCFF2810D0062804D84D2323FA55
:100F200000F0C30709D42046FFF7A0FF28B12946E7
:100F30002046BDE83840FDF7E9BC38BD70470000E9
:100F400038B5142504462A46002101F0EAFF258021
:100F50004025074928462581258200F08FFA04495B
:100F60006060284600F08AFAE060204638BD00BF85
:100F7000E7F93F027047704710B50446FFF7E0FFFE
:100F8000204610BD10B50446FFF7DAFF204610BD1D
:100F900010B50446FFF7D4FF204610BD30B50E4D06
:100FA00087B0D5E88F1F11F0010411D12846FEF754
:100FB00073F868B101A8FFF7DFFF214601AA0748CF
:100FC000FFF7BEFD2846FEF775F8054801F074FFEF
:100FD000024807B030BD00BF84AF071090AF0710C4
:100FE000B5183F0210B50D4C86B0D4E88F3FDB0733
:100FF00011D42046FEF750F868B101A8FFF7C2FFF0
:10100000012101AA0648FFF79BFD2046FEF752F892
:10101000044801F051FF024806B010BD88AF071028
:10102000A4AF0710EF183F0210B5FFF7DBFF074B27
:10103000044653B1FFF7A2FD38B1236820461B696F
:101040009847002801DD00E000BF10BD000000004F
:1010500010B50D4C86B0D4E88F3FDB0711D4204685
:10106000FEF71AF868B101A8FFF792FF022101AA62
:101070000648FFF765FD2046FEF71CF8044801F01E
:101080001BFF024806B010BD8CAF0710B8AF0710A9
:10109000ED183F0210B5FFF7DBFF074B044653B1D5
:1010A000FFF76CFD38B1236820461B69984700287C
:1010B00001DD00E000BF10BD00000000704700002F
:1010C00038B50A4B044603600123094943612020D7
:1010D00000F0D4F92025606005492846A56000F09D
:1010E000CDF9C4E90305204638BD00BF1800010052
:1010F000E7F93F0230B50E4D87B0D5E88F1F11F0EC
:10110000010411D12846FDF7C7FF68B16846FFF713
:10111000D7FF6A4621460748FFF760FD2846FDF7DE
:10112000C9FF054801F0C8FE024807B030BD00BF46
:10113000D0AF0710D4AF0710351A3F024FF08042EE
:10114000D2F8183223F0FE6343EA0050C2F81802C6
:1011500070470000012870B54FF080444AD1D4F8A0
:10116000A0309A0045D44FF09045D5F808320220BF
:1011700043F08053C5F80832D5F88032214E43F051
:101180000303C5F88032B047D5F880324FF4C870F9
:1011900043F00403C5F88032D4F8803043F00043B4
:1011A000C4F88030B047D5F8643223F00053C5F856
:1011B0006432D4F8803043F0C043C4F880302368F0
:1011C00023F480232360D4F8843043F00103C4F86F
:1011D0008430D4F8A0309B00FBD5D4F8803043F4A1
:1011E0008073C4F88030D4F8803043F08003C4F8B2
:1011F000803070BDD4F8803023F0C04323F4C07336
:10120000F5E700BF49A910100023C0E90033C0E989
:1012100002337047436801290BBF23F4803343F442
:101220008033436043600BBF4368436843F400333B
:1012300023F4003343607047436801290BBF23F058
:10124000807343F08073436043600BBF436843681F
:1012500043F0007323F000734360704738B50B68A8
:1012600005460C4633B1023B012B03D93A211F48F6
:1012700001F062FF6368032B06D9063B012B03D9FB
:101280003B211A4801F058FFA368012B03D93C21E8
:10129000164801F051FFE368032B03D93D211348A1
:1012A00001F04AFF6B68002143F001036B606B683B
:1012B000284623F001036B600D4BEB610D4B984703
:1012C0000D4B9847D4E900136A681B0222F0405284
:1012D00022F46C5243EA01331343A26843EAC22367
:1012E000E26843EA02736B6038BD00BFD9F93F0280
:1012F000710210808D1B3F02B11B3F0283680129E0
:101300000BBF43F4002323F40023836083600BBFEF
:10131000C368C36823F4002343F40023C360704709
:101320002DE9F7431F46DDE90A560C2358434B4B82
:101330000C4653F80080D8F8049031B94FF4A771E7
:101340004748019201F0F8FE019A39460C23454FB7
:101350000020B847FF2807467ED054220021424B88
:10136000204698470B21216408F110010022022336
:10137000012021621321C9F30139B9F1030FC4E936
:101380000423A2642263E064636022706770E162F8
:1013900044D1C4E90620E260A3602685238DB3F51D
:1013A000805F04D940F277112D4801F0C5FE224636
:1013B0002E4B61782078656298472D4A2F465369F5
:1013C000DB0322D5681C30D1711C30D10023C2F858
:1013D0008430BFF34F8F43F6E075D2F88030C3F30B
:1013E000C900C3F34E335B01014603EA050747EA30
:1013F000C1760139C2F87462F9D2203B13F1200F93
:10140000F2D1BFF34F8FBFF36F8F20780122617845
:10141000184B9847012003B0BDE8F083C4E90633B8
:10142000E360A360B3082385B8E7EB0607D025F097
:101430001F073544013D25F01F052035EE1B3546BD
:10144000BFF34F8F0A4A3744002DA7EB0503D8DDC1
:10145000C2F87032203DF7E70020DCE7B8F93F0220
:10146000C4F93F023DC41010A10E1110F9BF1010B5
:1014700000ED00E091BF1010FBF78DB8FBF78DB8C1
:1014800008B5FDF7D1FD000010EE103A1E4A23F01A
:10149000004393421BDDB3F1FF4F02DB30EE400A05
:1014A000704700B583B0684600F030FE00F00300DE
:1014B000012810D002281ED0B0B10120DDED010AB4
:1014C0009DED000A01F01CFB03B05DF804FBDFEDAD
:1014D0000F0A00F055BFDDED010A9DED000A01F095
:1014E0000FFBB1EE400AEFE7DDED010A9DED000ACA
:1014F00000F046FFE8E7DDED010A9DED000A00F08F
:101500003FFFB1EE400ADFE7D80F493F000000007F
:1015100010EE101AC1F3C7520029A2F17F0CB4BF1C
:101520004FF0FF300120BCF11E0F0EDCBCF1000FAC
:101530001BDBC1F31603BCF1160F43F4000309DDF6
:10154000963A934003FB00F07047FDEEC07A17EE29
:10155000900A70474FF48002CCF1170142FA0CF266
:101560001344CB4003FB00F07047BCF1FF3F18BFB2
:101570000020704710EE103A1F4A23F000439342B8
:101580001CDDB3F1FF4F02DB30EE400A704700B5BF
:1015900083B0684600F0BAFD00F00300012812D0C5
:1015A00002281FD0B0B1DDED010A9DED000A00F068
:1015B000E7FEB1EE400A03B05DF804FB0020DFED6A
:1015C0000F0A01F09DBADDED010A9DED000A00F061
:1015D000D7FEF0E70120DDED010A9DED000A01F0E4
:1015E0008FFAE8E70120DDED010A9DED000A01F028
:1015F00087FAB1EE400ADEE7D80F493F000000004D
:1016000008B52DED028BB0EE408A00F035F9164B8F
:10161000F0EE408A93F90030013312D0B0EE480A60
:1016200001F0BEFA68B1DFED117AB4EEE78AF1EEAF
:1016300010FA12DCDFED0E7AB4EEE78AF1EE10FA62
:1016400004D4B0EE680ABDEC028B08BDFDF7FAFCCD
:101650002223DFED088A0360F3E7FDF7F3FC222382
:10166000DFED058A0360ECE7100407108071B142DA
:10167000B5F1CFC2000000000000807F08B52DED5D
:10168000028BB0EE408A00F0E9F9144B93F9003078
:10169000013314D0B4EE488AF1EE10FA0FD6B5EE4D
:1016A000C08AF1EE10FA0AD8B5EE408AF1EE10FACF
:1016B00008D1FDF7C7FC22239FED090A0360BDECAA
:1016C000028B08BDFDF7BEFC212203460548BDEC98
:1016D000028B1A60BDE8084001F074BA10040710CC
:1016E000000080FFE8F93F0208B52DED048BF0EE15
:1016F000408AB0EE608A00F011FA474BB0EE409A93
:1017000093F9003001331FD0B4EE488AF1EE10FA9D
:101710001AD6F4EE688AF1EE10FA59D6DFED3F9A48
:10172000F4EE698AF1EE10FA13D1B4EE698AF1EEA3
:1017300010FA29D0B0EE480A01F032FA20B1B4EE26
:10174000E98AF1EE10FA4CD4B0EE490ABDEC048BF4
:1017500008BD01F025FAF0B1B5EE409AF1EE10FAAD
:10176000F2D1B0EE680A01F01BFA0028ECD0B0EE1E
:10177000480A01F015FA0028E6D0FDF763FC2223A1
:101780009FED269A0360DFE7B7EE009AB0EE490AB4
:10179000BDEC048B08BDB0EE680A01F001FA002828
:1017A000DAD0B0EE480A01F0FBF90028D4D0B4EE4C
:1017B000499AF1EE10FA27D6FDF744FCF5EEC08AFF
:1017C0002223F1EE10FA036012D49FED159ABBE7C5
:1017D000B5EE408AF7EE007AF1EE10FA07FE809A35
:1017E000B2E7FDF72FFC21239FED0E9A0360ABE7D4
:1017F000B0EE480A01F0ECF9B4EE480AF1EE10FA46
:10180000E3D09FED089A9FE7FDF71CFC212389EEAA
:10181000A99A036098E700BF1004071000000000B9
:101820000000807F000080FF08B52DED028BB0EE38
:10183000408A00F0A1FD0E4B93F9003001330BD02C
:10184000B4EE488AF1EE10FA06D6DFED0A8AB4EE5D
:10185000E88AF1EE10FA02D4BDEC028B08BDFDF768
:10186000F1FB88EEA80A21230360BDEC028B08BDC2
:10187000100407100000000010EE103A23F00042A0
:10188000B2F1FF4F59D84FEAD37100F0938061480D
:10189000834255DC29B1604B9A4202D99FED5F0A21
:1018A00070475F4B9A4250D95E4B9A4200F2948047
:1018B0005D48C1F101035D4A00EB810002EB81024A
:1018C000591A90ED004A92ED007A30EE444A34EE17
:1018D000470ADFED577ADFED574A9FED575A60EE22
:1018E000006A9FED566ADFED565AE6EEA74AA4EE6F
:1018F000A65AA5EE266AE6EE265AB0EE406AA5EE96
:10190000E66A002947D0F0EE006A11F17D0F60EE23
:10191000065AF7EE007A36EEC66A85EE860A37EE8C
:10192000400A30EE440A37EEC00A49DB10EE103AA6
:1019300003EBC15300EE103A704730EE000A7047D7
:101940009FED400A20EE000A7047B2F1465F0AD2CE
:10195000DFED3C7AB7EE007A70EE277AF4EEC77AC4
:10196000F1EE10FA52DC60EE007A9FED315ADFEDB5
:10197000315A9FED316AE7EE855ADFED306A9FED0F
:10198000307AA7EEA56AE7EE866AB0EE406AA7EE67
:10199000A67AA7EEC76AF0EE007A60EE066AB7EEA6
:1019A000007A36EE676AC6EE867A37EEC00A37EE00
:1019B000400A7047DFED197A002900FE270A7047B8
:1019C000643110EE103ADFED207A03EBC15300EEE4
:1019D000103A20EE270A70471C4BB0EE404A9FEDAC
:1019E0001C7A03EB81019FED1B6ADFED1B6AD1EDD1
:1019F000007AE0EE077AFDEEE77AB8EEE77A17EEC6
:101A0000901AA7EE464A27EE267A60E730EE070ADC
:101A1000704700BF1772B142B5F1CF42000000001D
:101A20001872B13E9115853FF4F93F02FCF93F026F
:101A30004CBB31330EEADDB555B38A38610B36BB8A
:101A4000ABAA2A3ECAF249710000800DECF93F02B0
:101A50003BAAB83F8071313FD1F7173708B510EE78
:101A6000103A33F000422DED028B2BD0002B32DBED
:101A7000B3F1FF4F41DAB3F5000F35DB0021DA1582
:101A8000C3F316037F3A0A44D10F02EBD272C1F1BD
:101A90007F0107EE902A43EAC153B8EEE78A00EED1
:101AA000103A01F009F9DFED176A9FED177A20EE81
:101AB000260ADFED167AA8EE070AA8EE270ABDEC83
:101AC000028B08BD9FED127ADFED127ABDEC028B1E
