:02000004085F93
:10A0000000A05F08FCFF5F080000060020000501BB
:08A010000401A018000000008B
:10A018001348144908B5884205D0134A824202D031
:10A02800124B121A98471248124A0021124B121A60
:10A03800984712481249884205D0124A824202D0F3
:10A048000A4B121A984710481049884205D0104AFE
:10A05800824202D0054B121A9847014808BD00BF3A
:10A0680090A4071048F05F0808A507102D0D1110DF
:10A0780020A50710F8AF0710A10E111058B03F0225
:10A08800A8A05F0860B03F0260B03F02B0A05F08C0
:0CA09800F8FF3F0219A05F080000000064
:08A0A8009CA05F08B0F83F0224
:10A0B00010F8012B11F8013B012A28BF9A42F7D072
:10A0C000D01A7047034613F8012B002AFBD1181A47
:10A0D0000138704770B502F0D3FE0025054E064CDE
:10A0E000A41BA408AC4200D170BD56F8043B9847AD
:10A0F0000135F7E7CCFF3F02F8FF3F0200F018BD43
:10A1000008B500F097FCBDE8084002F071BE01F010
:10A1100027BC01F025BC01F031BC0000744600B53D
:10A120008DB02C22002101A804F0C5FA054B04943F
:10A130000193054B02937B46002101A8039301F094
:10A14000DBFAFEE72C000C00C0F83F02704700006D
:10A150000C21054A92F83D304B43D118D35C0BB922
:10A16000486870470020704720AE071038B50C4D86
:10A170000A4695F83D4028B10C2303FB0453596867
:10A1800004F072FA0C23012263431444E4B2042C59
:10A19000EA540ABF002385F83D4085F83D3038BDBC
:10A1A00020AE0710094A92F83E1069B90C2092F8C7
:10A1B0003C3058430133DBB2042B115402D082F8F7
:10A1C0003C30704782F83C10704700BF20AE07104B
:10A1D0000C21084B93F83C204A4399189A5C22B111
:10A1E0000022486883F83E2070470122586B83F8AC
:10A1F0003E20704720AE0710064B93F83E200AB170
:10A20000986B70470C2193F83C2001FB023398684F
:10A21000704700BF20AE071037B5214B04465B697D
:10A22000D8031AD5636A228DD9064FEA820208D074
:10A2300023F01F01013B134423F01F0320335A1A5C
:10A240000B46BFF34F8F16481344002AA3EB0201BD
:10A2500021DCBFF34F8FBFF36F8F6178114B2078F4
:10A260009847FFF79FFFFFF7B3FF0190FFF7C4FF89
:10A270000546019A617820780B4B984761782078E1
:10A28000AA080A4B9847012261782078084B03B04E
:10A29000BDE830401847C0F85C12203AD5E700BF4F
:10A2A00000ED00E0A5BD1010B9C2101009C31010D8
:10A2B00091BF1010B0F5FA5FF7B51CD0B0F5FA4FAA
:10A2C00014BF05250325374B0120B1FA81F49847C7
:10A2D0004FF0414101220846334FB847334901222C
:10A2E0000846B847EB1E6409042B07D8DFE803F0E3
:10A2F0000506560658000725E5E70C26304603F00C
:10A30000EDFE022322462846002100F09FF8284D4A
:10A3100000212120A84700212220A847254D0C21FB
:10A320002120A8470C212220A847234B234A01259E
:10A330005A6380229A6300224FF4007020499A8762
:10A3400083F83E200132042AC3E901101D7001F593
:10A35000007103F10C03F5D100261A4D1A4B284663
:10A360009847294619481A4BAC602E60984701213E
:10A370001648184B98470121174B14489847FFF788
:10A3800027FF0446FFF738FF144ACDE90040114685
:10A390003046134B134CA04703B0F0BD1826ADE771
:10A3A0003026ABE7A5F03F0239001110000008404D
:10A3B00099CF1010B9CF101020AE0710A0A507102C
:10A3C00020A6071074A5071059F13F0200080140AC
:10A3D000ADF13F024DF23F0289F13F0220A5071087
:10A3E000C9B13F0271F23F0208B5FFF7B1FE00B9F3
:10A3F00008BD00210846FFF7B9FEF6E7FFF7A8BE43
:10A40000FFF7B4BE0904064A41EA002040F001000B
:10A41000044B10601168C90701D5013BFAD17047A0
:10A4200000000140A0860100064A000240F0100032
:10A43000106005481368D90602D50138FAD1704773
:10A44000180C704700000140A08601002DE9F34779
:10A4500017464FF090421D468846D2F844331169A2
:10A4600023F0FE0349014CBF43F0540343F0D003F3
:10A4700015F010040646C2F8443340EA001959D0DA
:10A480004FF421611220FFF7BDFF4FF42161152029
:10A49000FFF7B8FF1B20FFF7C7FF40F0070081B2AE
:10A4A0001B20FFF7AFFF1B20FFF7BEFF40F010009F
:10A4B00081B21B20FFF7A6FF41F6BF711820FFF7FE
:10A4C000A1FFFB20FFF7B0FF40F0020081B2FB20AC
:10A4D000FFF798FF1120FFF7A7FF20F4005141F488
:10A4E000805189B21120FFF78DFF1420FFF79CFFE8
:10A4F00020F4005141F4805189B21420FFF782FF0B
:10A500001820FFF791FF6FEAC0406FEAD04081B298
:10A510001820FFF777FF17211B20FFF773FF49462D
:10A520001720FFF76FFF8021102002B0BDE8F04731
:10A53000FFF768BF0320FFF777FF20F4406141F485
:10A540000061032089B2FFF75DFF15F0080A4AD0C9
:10A550001820FFF769FF40F03F0081B21820FFF795
:10A5600051FF2046FFF760FF00F4406040F4467161
:10A5700041F003012046FFF745FF40F2FC71012046
:10A58000FFF740FF0220FFF74FFF00F4E05040F4D8
:10A59000014141F0EA010220FFF734FF10210C20B5
:10A5A000FFF730FF49F6FC710120FFF72BFF022077
:10A5B000FFF73AFF00F4E05040F4014141F0FA01A6
:10A5C0000220FFF71FFF2046FFF72EFF00F4406038
:10A5D00040F4667141F003012046FFF713FF182194
:10A5E0000C20FFF70FFF15F005042FD00220FFF716
:10A5F0001BFF20F4C04141F40141022089B2FFF762
:10A6000001FF052004F064F9EA077FD50C20FFF76D
:10A610000BFF40F0100081B20C20FFF7F3FE022088
:10A62000FFF702FF40F4C06081B20220FFF7EAFEAC
:10A63000642004F04DF90320FFF7F6FE20F0F0014E
:10A6400041F4687189B20320FFF7DCFE15F00D0FAD
:10A6500002D0C82004F044F9BAF1000F20D0002045
:10A66000FFF7E2FE00F4406040F4067141F00301A0
:10A670000020FFF7C7FE40F2FC410120FFF7C2FEB9
:10A680000220FFF7D1FE00F4E05040F4014141F018
:10A69000EA010220FFF7B6FE10210C20FFF7B2FE00
:10A6A0006CB10020FFF7C0FE40F4606040F0010094
:10A6B00081B20020FFF7A6FE322004F009F941F62E
:10A6C000BF711820FFF79EFE46F220311120FFF7E0
:10A6D00099FE46F220311420FFF794FE64B3122055
:10A6E000FFF7A2FE04461520FFF79EFE24F4C76480
:10A6F00020F4C76AA4B21FFA8AFA092E0ED8DFE83E
:10A7000006F0BBC00DB60D0D0D0DBBC00320FFF74D
:10A710008BFE00F47F4040F4547194E744F0040150
:10A720004AF0040A1220FFF76DFE15205146FFF78C
:10A7300069FE322004F0D4F817211B20FFF762FED7
:10A7400049461720FFF75EFEFB20FFF76DFE20F065
:10A75000060141F0080189B2FB20FFF753FEFD20FE
:10A76000FFF762FE20F0060141F0080189B2FD20EA
:10A77000FFF748FE2720FFF757FE20F4807081B2D4
:10A780000FB941F480712720FFF73CFEFA20FFF754
:10A790004BFE20F400704005400D40F48051FA203B
:10A7A0000191FFF72FFEFC200199FFF72BFEAB076D
:10A7B00040D51120FFF738FE344C204040F4A04132
:10A7C00041F0190189B21120FFF71CFE1220FFF79A
:10A7D0002BFE40F0040081B21220FFF713FE14207C
:10A7E000FFF722FE204040F4A04141F0180189B259
:10A7F0001420FFF707FE1520FFF716FE40F00400B7
:10A8000081B21520FFF7FEFD1720FFF70DFE20F4A3
:10A81000E06141F4807189B21720FFF7F3FD182041
:10A82000FFF702FE6FEAC0406FEAD04081B2182005
:10A83000FFF7E8FD26F00806012E13D11720FFF7D9
:10A84000F3FD20F4F04141F4006189B21720FFF7D5
:10A85000D9FD1B20FFF7E8FD20F00C0081B21B2082
:10A86000FFF7D0FD47EA081141F080015CE644F0B3
:10A870000C014AF00C0A55E744F014014AF0140A9E
:10A8800050E744F01C014AF01C0A4BE7FEDFFFFFD3
:10A89000704730B585B00446089860B1406850B143
:10A8A000856845B1CDE90241CDE90023C4686A4617
:10A8B00001AB02A9A04705B030BD30B513680068F0
:10A8C00085B001938368D1E90045CDE902450BB914
:10A8D00003F0A6FDC36801AA02A9984705B030BDE0
:10A8E000012A08BF016000207047000007B5096811
:10A8F000019100F0A7FB00F0B5FB019902020348AB
:10A9000003B05DF804EB02F0AABE00BF6CAE071006
:10A91000012A02D1016000207047022A04BF0B689F
:10A920000360F8E703681268D1E9000118470000E6
:10A9300010B50446094B036001F0C0FB214601F04D
:10A9400009FE02F0CBFB02F0BDFB2046044B40F8B1
:10A95000043B01F089FC204610BD00BF54F93F02C2
:10A960003CF93F0210B50446FFF7E2FF20462421E0
:10A97000FFF7D1FB204610BD10B5094C227812B16B
:10A98000022A0AD010BD074B1146586800F032FF6A
:10A990000028F7D001232370F4E70323FBE700BF6F
:10A9A000C8AE071078AF071010B58368044613B11E
:10A9B000032201469847204610BD10B5044638B121
:10A9C000FFF7F2FF2046BDE810401021FFF7A3BBC0
:10A9D00010BD0EB44FF0200C002300B58CB00DAAB2
:10A9E00052F8041BCDE904C3CDE9001203920168BB
:10A9F00004AA1E2000F056FE0CB05DF804EB03B074
:10AA000070470EB44FF0200C002300B58CB00DAA97
:10AA100052F8041BCDE904C3CDE90012039201688A
:10AA200004AA322000F03EFE0CB05DF804EB03B047
:10AA300070470000F0B52A4E87B03778022F2AD031
:10AA4000032F40D0012F24D1264B274D01AC00937A
:10AA50000FCD0FC42B68254A237069460023128846
:10AA6000234802F087FF044670B122492248FFF7CD
:10AA7000B0FF00F0CBFB214B39461860072003F0F4
:10AA800014FA0223337004E01D491B48FFF7A1FFAD
:10AA9000347007B0F0BD00F0D5FA1A4A0368694671
:10AAA0005B6A0392184A029298476846FFF77CFF58
:10AAB00000F0ACFB114B1B68C01A4EF65F239842A6
:10AAC000E7D90323DEE70021072003F0EEF9084869
:10AAD00003F022F80D490848FFF77BFF0023D1E778
:10AAE000C8AE071050FB3F02B4AE071094A4071085
:10AAF0006CAE0710D5F83F0204AF0710ACAE0710DC
:10AB0000DEF83F029DB83F0291B83F02FAF83F02DB
:10AB100038B5002383608B6804460D462BB10222B2
:10AB20009847EB68E360AB68A360204638BD00003F
:10AB300070B5002498B000F0F7FE474B04A90493C9
:10AB4000464B08A80793464B10AD0693FFF7E0FF6E
:10AB500008A90CA8FFF7DCFF0CA92846FFF7D8FFCF
:10AB600010201694FFF7D3FA034698B195E8030036
:10AB700001AA82E8030093E8030085E8030092E855
:10AB80000300129A83E803009A60D968139A12941A
:10AB90001391DA6000261493324B10201793324B36
:10ABA00003961693314BCDE90136FFF7B0FA044610
:10ABB000D8B1169B866033B1022214A99847179B1F
:10ABC000E360169BA3602A4B4FF48050039300214F
:10ABD000284A01AB029400F0ABFD30B12046FFF7EC
:10ABE000E3FE10212046FFF796FA14A8FFF7DCFEDB
:10ABF0002846FFF7D9FE0CA8FFF7D6FE08A8FFF7F6
:10AC0000D3FE04A8FFF7D0FE0121072003F03CF992
:10AC10000021072003F049F900F014FA0121042271
:10AC2000C0E904124FF4FA420368C260DB68984737
:10AC3000024618B110491148FFF7E3FE00F002FA8E
:10AC400003685B699847024618B10D490B48FFF746
:10AC5000D8FE18B070BD00BF29B93F02D5B83F0279
:10AC6000C1B83F026BB83F0235BC3F0202000C0086
:10AC70006BB93F0243B83F0203F93F0204AF07102C
:10AC80001BF93F02012A37B5044604D10B68036063
:10AC9000002003B030BD022A0CD0032AF8D104688A
:10ACA000002CF5D02046FFF77FFE10212046FFF74D
:10ACB00032FAEDE7096810200191FFF728FA0546FE
:10ACC00010B10199FFF724FF2560E1E770B5142664
:10ACD000D0E90053044606FB0356AE4204D0284692
:10ACE00000F04CFF1435F8E7206800F047FE2046DE
:10ACF00070BD8842F8B504460D46164616D99042F6
:10AD000015D2A2F11406751AA1F114072C44B7420A
:10AD10001CD02CB13146204600F099FF337C2374BF
:10AD2000304600F02BFF143E143CF0E70ED0B54245
:10AD30000CD02CB12946204600F089FF2B7C2374CF
:10AD4000284600F01BFF14351434F0E7F8BD00234B
:10AD50002DE9F041C0E9003383604F6804469F420B
:10AD60000E4624DD4FF0140808FB07F000F0F8FD54
:10AD70000546E0B1D4E9001208FB0212FFF7B9FF63
:10AD8000206800F0FBFD2560A760D6E9007308FB92
:10AD90000378B84509D03946284600F072FF3B7C5D
:10ADA000143505F8043C1437F3E7736863602046F4
:10ADB000BDE8F08170B500248EB00021012000F0C4
:10ADC000C5FC274B274AC3E900449A60022000F0E3
:10ADD000A1FCCDE90244049402F080F9224C05461E
:10ADE000264602A905A8FFF7B2FF05A908A8FFF7A4
:10ADF000AEFF1E4B08A946F8043B0BA8FFF7A7FFC0
:10AE00000BAA1E21304601F087FC0BA8FFF75EFF5E
:10AE100008A8FFF75BFF164B2562236005A8FFF724
:10AE200055FF144B236002F059F94FF4165102F00C
:10AE300045F901F043F9214601F046FB02A8FFF76E
:10AE400045FFFB23752200930A218A230A4802F05A
:10AE5000C7F80A480EB0BDE8704002F0A7BE00BFB8
:10AE600060AE07100000FFFF88AE07103CF93F02FC
:10AE7000D4FA3F0254F93F02B0AE07106CAE07108F
:10AE8000012070476FF07700704770470023037709
:10AE90001846704710B504462021FFF73CF92046BC
:10AEA00010BD08B5C368B3F57A5F08D0B3F5FA4FA3
:10AEB00005D0B3F5FA5F1CBF4FF47A53C360017A33
:10AEC000C068FFF7F7F9002008BD10B50446FFF78A
:10AED0008BFA01230020237710BD08B5007F20B135
:10AEE000FFF78CFA003818BF012008BD37B5057F81
:10AEF00004461DB90025284603B030BD0191FFF777
:10AF00007DFA01460028F5D02046019A00F0B0F8FD
:10AF100000210846FFF774FAEDE7F7B5077F06460C
:10AF20000D461FB90027384603B0F0BDFFF766FA9B
:10AF300004460028F6D002460146304600F098F854
:10AF40004FF480730193AB6800940BB903F068FA77
:10AF500069462846EB6801AA984700210846FFF792
:10AF60004FFAE0E74FF0010C0421064AC0E904C1A2
:10AF70004FF48071426000228161034902720160D6
:10AF8000027770470B000C006CF93F026FF07700FE
:10AF90007047FFF786BFFFF798BFFFF777BFFFF750
:10AFA0009CBFFFF7A3BF000010B50446024B03602F
:10AFB000FFF76BFF204610BD9CF93F0210B5044619
:10AFC000FFF7F2FF20462021FFF7A5F8204610BD2D
:10AFD00010B50446024B0360FFF7E6FF204610BDA4
:10AFE000CCF93F0210B50446FFF7F2FF20462421BA
:10AFF000FFF791F8204610BD002330B585B00293CD
:10B000008B6805460C4633B1022268469847E368D0
:10B010000393A368029369462846FFF77EFF044620
:10B020006846FFF7C1FC204605B030BD10B50446A8
:10B03000FFF798FF024B204623600023236210BDD8
:10B04000CCF93F0238B5064D2B683BB92420FFF7F9
:10B050005EF8044608B1FFF7E9FF2C60286838BDA8
:10B06000CCAE07100369002B0CBF012002207047F3
:10B07000F8B50746036886699B680C46154601EBE0
:10B08000460698473B69C3B901226FF07F017B698F
:10B0900040009A4012B2B44236D2B4F900300444AF
:10B0A00093FBF2F31BB27F2BA8BF7F238B42B8BF69
:10B0B0000B46803B05F8013BEDE7012B17D17A6980
:10B0C00048F264071149C2F108024000B4421BD2A1
:10B0D000B4F90030044493408B4206DBB3F5004FD3
:10B0E000C8BF3B4625F8023BF0E7084BFAE7AC4205
:10B0F00001D1012808D04000B44205D2B4F9003093
:10B10000044425F8023BF7E7F8BD00BF0180FFFFCC
:10B1100009B504480068044B03441B689B6802930C
:10B1200009BD000090A407105000000009B50448B4
:10B130000068044B03441B68DB68029309BD0000F0
:10B1400090A407105000000009B504480068044BA3
:10B1500003441B685B69029309BD000090A40710BB
:10B160005000000009B504480068044B03441B6804
:10B170009B68029309BD000090A407101400000012
:10B1800009B504480068044B03441B68DB6802935C
:10B1900009BD000090A407101400000009B5044880
:10B1A0000068044B03441B681B69029309BD00003F
:10B1B00090A407101400000009B504480068044B6F
:10B1C00003441B685B69029309BD000090A407104B
:10B1D0005400000009B504480068044B03441B6890
:10B1E0009B69029309BD000090A407105400000061
:10B1F00009B504480068044B03441B685B6802936C
:10B2000009BD000090A407100000000009B5044823
:10B210000068044B03441B685B69029309BD00008E
:10B2200090A407100000000009B504480068044B12
:10B2300003441B685B6C029309BD000090A40710D7
:10B240003000000009B504480068044B03441B6843
:10B250009B6C029309BD000090A407103000000011
:10B2600009B504480068044B03441B68DB6C029377
:10B2700009BD000090A407103000000009B5044883
:10B280000068044B03441B685B6D029309BD00001A
:10B2900090A407103000000009B504480068044B72
:10B2A00003441B685B69029309BD000090A407106A
:10B2B0004C00000009B504480068044B03441B68B7
:10B2C0001B6A029309BD000090A407104C00000007
:10B2D00009B504480068044B03441B689B6A029349
:10B2E00009BD000090A407104C00000009B50448F7
:10B2F0000068044B03441B689B68029309BD00006F
:10B3000090A407102400000009B504480068044B0D
:10B3100003441B68DB68029309BD000090A407107A
:10B320002400000009B504480068044B03441B686E
:10B330001B69029309BD000090A4071024000000BF
:10B3400009B504480068044B03441B685B69029319
:10B3500009BD000090A407102400000009B50448AE
:10B360000068044B03441B689B69029309BD0000FD
:10B3700090A407102400000009B504480068044B9D
:10B3800003441B68DB69029309BD000090A4071009
:10B390002400000009B504480068044B03441B68FE
:10B3A0001B6A029309BD000090A40710240000004E
:10B3B00009B504480068044B03441B689B6A029368
:10B3C00009BD000090A407102400000009B504483E
:10B3D0000068044B03441B68DB6A029309BD00004C
:10B3E00090A407102400000009B504480068044B2D
:10B3F00003441B681B6C029309BD000090A4071056
:10B400002400000009B504480068044B03441B688D
:10B410001B6A029309BD000090A4071010000000F1
:10B4200009B504480068044B03441B685B6A029337
:10B4300009BD000090A407101000000009B50448E1
:10B440000068044B03441B689B6A029309BD00001B
:10B4500090A407101000000009B504480068044BD0
:10B4600003441B68DB6A029309BD000090A4071027
:10B470001000000009B504480068044B03441B6831
:10B480001B6B029309BD000090A407101000000080
:10B4900009B504480068044B03441B685B6B0293C6
:10B4A00009BD000090A407101000000009B5044871
:10B4B0000068044B03441B681B6C029309BD000029
:10B4C00090A407101000000009B504480068044B60
:10B4D00003441B689B69029309BD000090A40710F8
:10B4E0002000000009B504480068044B03441B68B1
:10B4F000DB69029309BD000090A407102000000042
:10B5000009B504480068044B03441B681B6A029396
:10B5100009BD000090A407102000000009B50448F0
:10B520000068044B03441B689B6A029309BD00003A
:10B5300090A407102000000009B504480068044BDF
:10B5400003441B681B6B029309BD000090A4071005
:10B550002000000009B504480068044B03441B6840
:10B560009B6B029309BD000090A40710200000000F
:10B5700009B504480068044B03441B68DB69029367
:10B5800009BD000090A407101800000009B5044888
:10B590000068044B03441B681B6A029309BD00004A
:10B5A00090A407101800000009B504480068044B77
:10B5B00003441B681B68029309BD000090A4071098
:10B5C0003400000009B504480068044B03441B68BC
:10B5D0005B68029309BD000090A4071034000000CE
:10B5E00009B504480068044B03441B689B68029338
:10B5F00009BD000090A407103400000009B50448FC
:10B600000068044B03441B681B69029309BD0000DA
:10B6100090A407103400000009B504480068044BEA
:10B6200003441B685B69029309BD000090A40710E6
:10B630003400000009B504480068044B03441B684B
:10B640009B69029309BD000090A40710340000001C
:10B6500009B504480068044B03441B68DB69029386
:10B6600009BD000090A407103400000009B504488B
:10B670000068044B03441B681B6A029309BD000069
:10B6800090A407103400000009B504480068044B7A
:10B6900003441B681B6D029309BD000090A40710B2
:10B6A0004800000009B504480068044B03441B68C7
:10B6B0005B6D029309BD000090A4071048000000D4
:10B6C00009B504480068044B03441B68DB6E029311
:10B6D00009BD000090A407104800000009B5044807
:10B6E0000068044B03441B681B6F029309BD0000F4
:10B6F00090A407104800000009B504480068044BF6
:10B7000003441B68D3F8D430029309BD90A40710FA
:10B710004800000009B504480068044B03441B6856
:10B720005B68029309BD000090A4071008000000A8
:10B7300009B504480068044B03441B681B6A029364
:10B7400009BD000090A407100800000009B50448D6
:10B750000068044B03441B68DB6A029309BD0000C8
:10B7600090A407100800000009B504480068044BC5
:10B7700003441B68D3F88830029309BD90A40710D6
:10B780000800000009B504480068044B03441B6826
:10B79000D3F89430029309BD90A40710080000006C
:10B7A00009B504480068044B03441B685B680293B6
:10B7B00009BD000090A407102800000009B5044846
:10B7C0000068044B03441B689B68029309BD00009A
:10B7D00090A407102800000009B504480068044B35
:10B7E00003441B68DB68029309BD000090A40710A6
:10B7F0002800000009B504480068044B03441B6896
:10B800001B69029309BD000090A4071028000000E6
:10B8100009B504480068044B03441B685B69029344
:10B8200009BD000090A407102800000009B50448D5
:10B830000068044B03441B689B69029309BD000028
:10B8400090A407102800000009B504480068044BC4
:10B8500003441B68DB69029309BD000090A4071034
:10B860002800000009B504480068044B03441B6825
:10B870001B6A029309BD000090A407102800000075
:10B8800009B504480068044B03441B681B6B029312
:10B8900009BD000090A407102800000009B5044865
:10B8A0000068044B03441B685B6B029309BD0000F6
:10B8B00090A407102800000009B504480068044B54
:10B8C00003441B681B6C029309BD000090A4071081
:10B8D0002800000009B504480068044B03441B68B5
:10B8E0005B6C029309BD000090A4071028000000C3
:10B8F00009B504480068044B03441B685B6D029360
:10B9000009BD000090A407102800000009B50448F4
:10B910000068044B03441B689B6D029309BD000043
:10B9200090A407102800000009B504480068044BE3
:10B9300003441B68DB68029309BD000090A4071054
:10B940002C00000009B504480068044B03441B6840
:10B95000DB6B029309BD000090A407102C000000CF
:10B9600009B504480068044B03441B681B68029334
:10B9700009BD000090A407100400000009B50448A8
:10B980000068044B03441B685B68029309BD000018
:10B9900090A407100400000009B504480068044B97
:10B9A00003441B689B68029309BD000090A4071024
:10B9B0000400000009B504480068044B03441B68F8
:10B9C0005B6A029309BD000090A407100400000008
:10B9D00009B504480068044B03441B68DB6A029302
:10B9E00009BD000090A407100400000009B5044838
:10B9F0000068044B03441B68DB6B029309BD000025
:10BA000090A407100400000009B504480068044B26
:10BA100003441B681B6C029309BD000090A407102F
:10BA20000400000009B504480068044B03441B6887
:10BA30005B6C029309BD000090A407100400000095
:10BA400009B504480068044B03441B689B6D0293CE
:10BA500009BD000090A407100400000009B50448C7
:10BA60000068044B03441B68DB6D029309BD0000B2
:10BA700090A4071004000000002240681146FFF760
:10BA8000F1BE002240681146FFF708BF002240685F
:10BA9000FFF7F6BE0022406881F00101FFF7D4BE37
:10BAA000002340681A461946FFF7C0BE00234068CD
:10BAB0001A461946FFF7ACBE002240681146FFF750
:10BAC00099BE002240681146FFF778BE002202218D
:10BAD0004068FFF781BE002340681A46FFF760BE4A
:10BAE0000322024B5A60024A1A607047D0AE071018
:10BAF000FCF93F020B6803604B68436013B15A685E
:10BB000001325A60704738B5046805467CB16368F5
:10BB1000013B63605BB9236820469B689847A36834
:10BB2000013BA3601BB923682046DB689847284681
:10BB300038BD00000022024BC3E900229A60704722
:10BB4000D8AE071010B5044608462170FFF710FD67
:10BB500000232046636010BD02220020044B1A60BF
:10BB6000044B054AC3E900009A60FFF7D3BD00BF4C
:10BB7000F0AE0710E4AE07100000FFFF10B504465A
:10BB80000068FFF7FBFE204610BD10B504460068B4
:10BB900008B1FFF7F3FE0023C4E90133236010BDB1
:10BBA00038B504460D4600680131FFF7F5FE10B1C7
:10BBB000C4E90005012038BD10B50368044623B16F
:10BBC00043688B4201D3012010BD2046FFF7E8FFF8
:10BBD0000028F9D0A368002BF5D122681370F2E792
:10BBE00037B50D46114601920446FFF7E5FF019A6D
:10BBF00028B92046FFF7C9FF204603B030BD2946CB
:10BC0000A260206802F030FD00212268A368D154B0
:10BC1000F2E738B5054600680C4670B16A688B6873
:10BC20009A4208D3096831B102F093FDA368AB6072
:10BC30000023A36038BDFFF7A1FE23682B60636873
:10BC40006B60A368AB600023C4E90033F1E7002315
:10BC500010B50446C0E9003383600373FFF7D9FFD2
:10BC6000204610BD884210B5044605D00B682BB1A4
:10BC70008A681946FFF7B4FF204610BDFFF785FF1D
:10BC8000FAE7002310B50446C0E90033836003736C
:10BC9000FFF7E8FF204610BD10B543680446013B9E
:10BCA000436063B903689B689847A368013BA3603E
:10BCB0002BB923682046BDE81040DB68184710BD4B
:10BCC00070B50446D0E9005305EB0316AE4204D02C
:10BCD0002846FFF753FF1035F8E72068FFF74EFEC0
:10BCE000204670BD002302480360FFF79DBA00BFE5
:10BCF000F4AE071010B5044680680368DB68984707
:10BD0000E3681844E06010BDF8B506460D4600240F
:10BD10008F18BD420CD0336830469B6815F8011B64
:10BD20009847031E01DB1C44F3E7002C08BF1C46A8
:10BD30002046F8BD704710B504461021FEF7EBF918
:10BD4000204610BD13B50446084659B10191FEF7CF
:10BD5000B9F90246204623680199DB6802B0BDE8C4
:10BD60001040184702B010BD03689B6818470023B5
:10BD7000012A98BF0A2230B58BB08DF8243009AC67
:10BD80000D46B1FBF2F101FB125303F0FF03092B47
:10BD900094BF30333733DBB2AA4204F8013DEFD908
:10BDA0002146FFF7CFFF0BB030BD10B50446FFF7BB
:10BDB0002DFAE060236820465B699847002808DA7E
:10BDC000FFF724FAE368C01AA3689842F2D34FF051
:10BDD000FF3010BD2DE9F04107460C460D468E1888
:10BDE000B542A5EB040807D03846FFF7DEFF031E77
:10BDF00002DB05F8013BF3E74046BDE8F081704700
:10BE0000084611B10B685B68184770477047704768
:10BE1000704738B504460D4600682E2102F08FFCAD
:10BE20002368C31A2B6023B1037803B10130236860
:10BE30002060184638BD10B504460421FEF76BF9A2
:10BE4000204610BD10B504460421FEF764F92046D3
:10BE500010BDFFF705BA08B5FEF72AF9B0FA80F071
:10BE6000400908BD704710B50C4601F037F984420F
:10BE700005D101F033F9BDE8104001F023B902F01B
:10BE80005DF8844205D102F059F8BDE8104001F098
:10BE90007ABB2CB123682046BDE810405B68184788
:10BEA00010BD13B5044608460191FEF70BF9024692
:10BEB0002046019902B0BDE8104001F0FBBA13B56D
:10BEC000044608460191FEF7FDF802462046236825
:10BED0000199DB6802B0BDE81040184707B5036858
:10BEE0008DF807100122DB680DF10701984703B0B8
:10BEF0005DF804FB2DE9F74F4FF0140AD0E90084F8
:10BF0000174645460AFB04F40093174BA4105C4304
:10BF1000002C21DD66100AFB06F005EB0009B9F8DC
:10BF200004B03A465F4528BF5A462858019102F0AE
:10BF300018FC00284FF0010301990BD15F4503D194
:10BF4000009A13703446E3E7FCD9A61B09F11405E7
:10BF5000013EF7E7F9DBF5E7A5EB08050248AD1070
:10BF6000684303B0BDE8F08FCDCCCCCC7FB503697E
:10BF7000057E019103B3F9B1002600F10C0403968C
:10BF800003A901A8FFF745FF0146A8B10DF10B0376
:10BF90002046039A8DF80B60FFF7ACFF9DF80B303D
:10BFA00053B12368142404FB0034B4F90630083478
:10BFB000002BA8BFDDB2E3E7284604B070BD0EB485
:10BFC000F0B58CB000AF07F1440555F8042B0446DA
:10BFD0002B46202107F110007A60FD60FFF7EAFC94
:10BFE0001F287A681AD900F1080323F007036E4668
:10BFF000ADEB030D411C2B466846FD60FFF7DAFCF4
:10C00000021E04DD236869462046DB689847B54672
:10C010003037BD46BDE8F04003B070470028F7D088
:10C0200023680246DB68204607F110019847EFE7D6
:10C0300010B5084CD4E88F3FDB0709D42046FFF742
:10C04000FFFC28B12046FFF709FD034802F0FEFA85
:10C05000024810BDFCAE0710BDCD3F0298A40710EA
:10C0600010B5084CD4E88F3FDB0709D42046FFF712
:10C07000E7FC28B12046FFF7F1FC034802F0E6FA9E
:10C08000024810BD00AF071015CE3F029CA4071058
:10C0900038B500250446C0E90055C0E9045585605F
:10C0A000856140F8245FFFF7BFF8FFF7C1FFE0614B
:10C0B000FFF7D6FF25732062204638BD10B50A4C25
:10C0C000D4E88F3FDB070CD42046FFF7B9FC40B122
:10C0D0000648FFF7DDFF2046FFF7C0FC044802F0EA
:10C0E000B5FA024810BD00BFF8AE071008AF071040
:10C0F000E1D53F020023024A02490348FFF7EEBAA6
:10C10000C9D33F0255D33F02D5D23F0200231A467E
:10C1100019461846FFF7E2BA37B504468D686846F7
:10C12000FFF7E8FC6A462946204601F0E3F801A83B
:10C13000FFF7E9FC204603B030BD37B50446CD68B3
:10C140006846FFF7D7FC6A462946204601F0AEF85C
:10C1500001A8FFF7D8FC204603B030BD37B5044630
:10C160000D696846FFF7C6FC6A462946204601F07D
:10C1700046F801A8FFF7C7FC204603B030BD000019
:10C1800070B58AB00D46014604A8FFF7C5FF144EEE
:10C1900004A801F0C7F8E8B1684604A9FFF7CDFF8D
:10C1A00031460298FFF757FE044610B12C1E18BF07
:10C1B000012401A8FFF7A7FC002CE9D0684604A9D8
:10C1C000FFF7CCFF684601F050F8286001A8FFF7A0
:10C1D0009AFCDDE705A8FFF796FC0AB070BD00BF2A
:10C1E00058FA3F0237B50C46134920461546FDF76D
:10C1F0005FFF50B900F072FF4FF4165100F05EFF80
:10C2000003B0BDE8304000F069BF20460B49FDF7A0
:10C210004FFF78B94FF4165301A928460193FFF751
:10C22000AFFF01F08BFE019901F0AAF901F086FE43
:10C2300003B030BD0020FBE75DFA3F0264FA3F0225
:10C2400070B51426D0E90053044606FB0356AE42EF
:10C2500005D005F10800FFF7F3FF1435F7E7206874
:10C26000FFF78CFB204670BD10B504460C30FFF77D
:10C27000E7FF2046FFF724FD204610BD10B5044619
:10C28000034B40F8043BFFF7EFFF204610BD00BF13
:10C290003CF93F0210B50446FFF7F0FF2046242189
:10C2A000FDF739FF204610BD10B50446024B036070
:10C2B000FFF7E4FF204610BDECFA3F0210B504463C
:10C2C000FFF7F2FF20462421FDF725FF204610BD91
:10C2D0000A6810B502604A6842600022C0E9022282
:10C2E00002618C688A608460CC68CA60C4600C6932
:10C2F0000A61046110BD0022C0E90022826010B50D
:10C300000C680A6004604C684A6044608C688A600B
:10C31000846010BD10B5044603681868FEF7AEFFD0
:10C32000204610BD2DE9F04F87B003931C4B80468B
:10C330005B688946C3F3080316466BB9FFF7BEFE78
:10C34000044600F12403406A0593FFF782FD237B36
:10C350002BB105A8FFF7DEFF07B0BDE8F08F012382
:10C360005FFA89F92373D4E9005305EB830AAA45E0
:10C3700012D055F8047B3146381DFFF7F7FD814593
:10C38000F5D3039A3B680092D3F808B04A46334687
:10C3900041463846D847EAE700232373D9E700BF70
:10C3A00000ED00E02DE9F74F9B461A4B80465B6895
:10C3B0008946C3F3080316466BB9FFF77FFE0446B0
:10C3C00000F12403406A0193FFF743FD237B2BB167
:10C3D00001A8FFF79FFF03B0BDE8F08F0123F6B27D
:10C3E0002373D4E9005305EB830A55450ED055F865
:10C3F000047B5946381DFFF7B9FD8642F5D33B68EB
:10C400004A4641463846DB689847EEE700232373E7
:10C41000DEE700BF00ED00E02DE9F341164B0546D5
:10C420005B680F46C3F308031BBBFFF747FE0446D8
:10C4300000F12403406A0193FFF70BFDD4E9006388
:10C44000462406EB8308B04509D101A8FFF762FF37
:10C45000A542B4BF0020012002B0BDE8F08156F82B
:10C46000040B39460430FFF781FD8442A8BF04461F
:10C47000E9E70020F0E700BF00ED00E0F8B5D0E903
:10C4800001539D4204460E460DDB6F1C002F0068D1
:10C4900004DDB900FFF780FA18B9F8BDFFF76EFAAE
:10C4A00000202060A7602768626807EB8501920082
:10C4B000A2EB8502081D02F0E4F847F825606368E6
:10C4C000012001336360E8E737B5044600F1240337
:10C4D000406A01930D46FFF7BCFCD4E9003203EB40
:10C4E0008202934219460AD009680433A942F8D15E
:10C4F00001A8FFF70FFF0025284603B030BD2946ED
:10C500002046FFF7BBFF05460028F1D06368012BEA
:10C5100001D1FFF7EFFD01A8FFF7FCFEECE70B46AA
:10C5200070B50446D0E9000200EB820282420FD0CF
:10C5300001461D6851F8046BAE4207D1521A02F051
:10C54000A0F801206368013B636070BD0846EDE719
:10C550000020FAE71FB5044600F12403406A019168
:10C560000393FFF776FC204601A9FFF7D8FF18B127
:10C5700063680BB9FFF7CAFD03A8FFF7CBFE04B051
:10C5800010BD182370B50446D0E9045603FB0656C7
:10C59000AE4215D0204605F11001FFF7C0FF6368D9
:10C5A0000BB9FFF7B3FDE06929690368DB689847B9
:10C5B000696919B1206A0368DB6898471835E7E7AD
:10C5C0001826D4E9045306FB0356AE4204D028468D
:10C5D000FFF7D4FA1835F8E70023636170BD73B52F
:10C5E0000446FFF793FD04F12403606A0193FFF70B
:10C5F00030FC2046FFF7C5FF01A8FFF78BFE606AFD
:10C6000008B1FEF71FFED4E90453182606FB0356B3
:10C61000AE4204D02846FFF7B1FA1835F8E7206992
:10C62000FFF7ACF92068FFF7A9F9204602B070BD0A
:10C630000148FFF7D4BF00BF08AF07108842F8B524
:10C6400004460D46164615D9904214D2A2F114069E
:10C65000751AA1F114072C44B7421AD01CB1314607
:10C660002046FFF735FE06F10800FFF7E9FD143E0E
:10C67000143CF1E70DD0B5420BD01CB12946204641
:10C68000FFF726FE05F10800FFF7DAFD1435143434
:10C69000F1E7F8BD8842F8B504460D46164614D9B0
:10C6A000904213D2A2F11006751AA1F110072C4482
:10C6B000B74218D01CB131462046FFF7C8FA3046C1
:10C6C000FFF75CFA103E103CF2E70CD0B5420AD0FE
:10C6D0001CB129462046FFF7BAFA2846FFF74EFA62
:10C6E00010351034F2E7F8BD70B50E1E054611DDA9
:10C6F0003001FFF735F9044658B1D5E9001201EBD6
:10C700000212FFF7C7FF2868FFF738F901202C60F5
:10C71000AE6070BD0024F6E72DE9F04F904600238F
:10C72000462295B00391D8F8041004469942C0E916
:10C730000033C0E90233C0E90433CDE9083302769F
:10C740000A9323DCD8E90057142303FB0757AF42B1
:10C750003BD029460BA8FFF77AFA0BA90FA8099E30
:10C76000FFF775FADDE9091399421BDA089B099A6C
:10C7700003EB0616314603EB021206F11000FFF739
:10C7800089FFEEB9099B0133099311E008A8FFF76F
:10C79000ABFF0028D6D108A8FFF792FA204615B0C3
:10C7A000BDE8F08F013108A8FFF79EFF0028DDD11A
:10C7B0000FA8FFF7E3F90BA8FFF7E0F91435C6E778
:10C7C00030460FA9FFF743FADCE700264FF01409C3
:10C7D000CDE90B660D96DDE908239E427CDA330134
:10C7E000D35806930BB90136F5E70023079309FBED
:10C7F00006F30BAD029307A906A8FFF70AFB8246D2
:10C800000028F0D04FF0000301468DF8173028467D
:10C81000079A0DF11703FFF76DFB9DF81770019054
:10C82000002F4AD1BDF81C30CDE91177ADF840306A
:10C830004FF6FF73CDF83CA0ADF842301397D5E921
:10C840000132934217DB03F1010ABAF1000F30DD28
:10C8500009FB0AF0FFF784F8834660B3D5E90012BC
:10C8600009FB0212FFF7EAFE2868FFF787F8C5F810
:10C8700000B0C5F808A02B68019A09FB023A6A6863
:10C88000514609FB02320AF11400FFF7D7FEBAF154
:10C89000000F03D050460FA9FFF71AFD6B68013354
:10C8A0006B6011A8FFF7CCFC3FB10BA8FFF7C8FCE9
:10C8B00071E7BB46D8E70127F3E7019B2D6809FB29
:10C8C0000355069B1B782BB9D8F80030029A134405
:10C8D0001B7CEB8008358EE721682260626863600C
:10C8E000A36809920A9A0A93E368A2600B9A0B93D1
:10C8F0002369E2600C9A0C93636922610D9A0D938F
:10C90000039B089162612376CFE70000F0B50446EF
:10C910002646174687B00D4668461946FEF717FAB1
:10C920000B4B694646F8043B03A8FEF710FA39465C
:10C9300003AA3046FFF7F0FE03A8FEF7C7F96846E2
:10C94000FEF7C4F92046034B2562236007B0F0BD13
:10C950003CF93F02D4FA3F02F0B50F4685B03846A5
:10C960001C4916461D460A9CFDF7A2FBC0B9A4B19E
:10C97000294601A8FFF7BFFC2420174901F04CFD10
:10C98000054630B101AB32462146FFF7BFFF134BDE
:10C990002B6001A8FEF79AF92C46204605B0F0BDA1
:10C9A00038460F49FDF784FB90B9002CF5D0294695
:10C9B00001A8FFF7A0FC2420074901F02DFD054642
:10C9C0000028E6D03246214601ABFFF79FFFE0E7A3
:10C9D0000024E2E76CFA3F0243FD3F02ECFA3F021B
:10C9E00070FA3F02014B024A1A60704704AF071009
:10C9F00081FA3F022DE9F047089DD0F820900446C7
:10CA00000E461746984600F069FB81454DD02B79BC
:10CA1000190704D520466A695449FFF7D0FAB8F1DE
:10CA2000000F0DD05B212046FFF758FA4146204603
:10CA3000FFF745FA236802222046DB684C499847F5
:10CA40002B79DA0724D5D5F808802F21404601F04C
:10CA50009CFE08B100F1010841462046FFF72FFA7D
:10CA60002B799B0708D53A212046FFF737FA204655
:10CA7000EA684049FFF7A3FA2A79236812F0040F05
:10CA800020464FF00202DB6814BF3B493B49984700
:10CA90002B7958071DD529690B461A4613F8010B47
:10CAA00060B1202808D11946F7E7354801F007F9A9
:10CAB0000028ACD0BDE8F0872828EED12368521AB0
:10CAC0002046DB689847236804222046DB682D490E
:10CAD000984700213846FEF7F3FD01462046FFF750
:10CAE000EEF9236802222046DB68244998471EB1EC
:10CAF00031462046FFF7E3F92B7913F0300F2CD0A5
:10CB000023682149DB680222204698472B79D90601
:10CB10000AD52368072220461C49DB68984720462F
:10CB2000AA691B49FFF74BFA2B799A0611D5DB0648
:10CB300005D5236802222046DB680F499847236801
:10CB4000204614490A22DB6898472046E969FFF726
:10CB5000B6F95D212046FFF7C1F923682046BDE8FC
:10CB6000F0470222DB680C49184700BF85FA3F02F4
:10CB70008CFA3F0210FC3F028FFA3F0294FA3F0208
:10CB800080AF071092FA3F0297FA3F029AFA3F02EB
:10CB9000A2FA3F02A5FA3F02B0FA3F022DE9F041A6
:10CBA0000446076A0D46164600F098FA874207D0F9
:10CBB000206A324603682946BDE8F041DB68184721
:10CBC000034801F07CF80028F2D0BDE8F08100BFF6
:10CBD00080AF07102DE9F04385B0D0F820900546CE
:10CBE0000F4690461E460C9C00F078FA814505D110
:10CBF000494801F064F8002840F08A804FF00009AD
:10CC00002B6A464A6846CDE9023900928DF80490B5
:10CC100000F0B1FB49464046FEF752FD80464049D0
:10CC20000122684600F036FC4146FFF73AF93FB171
:10CC30003C490122684600F02DFC3946FFF731F9E6
:10CC40003EB139490122684600F024FC3146FFF725
:10CC500028F92379DF070ED5A6682F21304601F089
:10CC600094FD00B1461C31490122684600F012FCD7
:10CC70003146FFF716F923799E0707D52C49022282
:10CC8000684600F007FCE16800F082FB2379580752
:10CC900014D5266933461F4613F8012B2AB1202AE2
:10CCA00001D11E46F7E7282AF5D10222214968461C
:10CCB00000F0F0FB3146BA1B00F0FCFB23791907AA
:10CCC00007D51D490122684600F0E4FB616900F0C8
:10CCD00071FB2379DA0607D518490422684600F06B
:10CCE000D9FBA16900F054FB23799B0607D51449B1
:10CCF0000622684600F0CEFBE169FFF7D2F86846ED
:10CD000000F023FB286A022203680E49DB6898477B
:10CD100005B0BDE8F08300BF80AF071048FA3F02BE
:10CD200062FA3F02B3FA3F02C7FE3F02B5FA3F0282
:10CD3000B7FA3F02BAFA3F02BDFA3F02BFFA3F021A
:10CD4000C4FA3F02B0FA3F02024B1A68024B1A6063
:10CD5000704700BFA0A4071030AF071010B5044BF8
:10CD600004460360806908B1FEF796FF204610BDB7
:10CD700038FC3F0210B50446FFF7F0FF20461C21A7
:10CD8000FDF7C9F9204610BD0022014B9A6070479B
:10CD900034AF0710014B1860704700BFA4A4071000
:10CDA00008B50F4B43B100F099F903681B69984728
:10CDB000002801DD00E000BF0A4B43B101F0BEF8DE
:10CDC00003681B699847002801DD00E000BF064B9F
:10CDD0000BB101F0F9F8054B0BB101F02BF908BDCF
:10CDE0000000000000000000000000000000000043
:10CDF00008B5FFF7D5FFFEF709FA014B186008BD2B
:10CE0000DCAF07100548064A08B5121A054901F0BB
:10CE10002BFC054B054A1A6008BD00BF00B4071083
:10CE200004B40710C0F05F0800B407101E1C279A56
:10CE3000002307B51A466FF077010093FEF7A2FCB6
:10CE400003B05DF804FB000007B543880A2B08D047
:10CE5000502B0BD1094B1B684BB103B05DF804EBB1
:10CE60001847FFF7E5FF03B05DF804FB00231A46FF
:10CE70006FF077010093FEF785FCF4E748AF0710E9
:10CE8000002110B51148FEF7CDFD114B1A68114B6A
:10CE90009A420CBF012200220F4B1A7001D0FFF7FB
:10CEA000B1FFFEF7A5F9044601F00EFC0B4B13B1E0
:10CEB000204600E000BF00210848FEF743FDBDE822
:10CEC000104000210648FEF74FBC00BF45DD3F0281
:10CED00000B407101E1C279A44AF07100000000082
:10CEE000F9DD3F02704710B504461821FDF713F92C
:10CEF000204610BDF0B5037D0E46062B4FF0000412
:10CF00008DB000F1040712D000F1080515F8011DDD
:10CF10000A223046FEF72BFFAF42044419D0002C02
:10CF2000F4D02E213046FEF71FFF0444EEE72F23F6
:10CF30006A4639460A208DF80040FEF7ADF968468A
:10CF4000FDF7C0F83368024669463046DB6898470B
:10CF5000044620460DB0F0BD10B50446044B112226
:10CF6000002140F8043B01F0A6FB204610BD00BFA5
:10CF700050FB3F020346074A10B543F8042B01F16A
:10CF8000100251F8044B914243F8044BF9D10A784E
:10CF90001A7010BD50FB3F02037D042B04D1406882
:10CFA000003818BF01207047062B07D143683BB9F2
:10CFB00083682BB9C3681BB90069F1E7002070478B
:10CFC0000120704710B59DF8084044EA032343EA66
:10CFD0000242042342EA01614160037510BD000072
:10CFE00013B5044C04609DF810400094FFF7EAFF6D
:10CFF00002B010BD50FB3F0207B5064B0360CB7873
:10D0000000938B784A780978FFF7DCFF03B05DF86E
:10D0100004FB00BF50FB3F024174704770477047EC
:10D0200008B50021007CFEF705FB40EAE07008BD72
:10D0300008B50121007CFEF7FDFA40EAE07008BD6A
:10D0400008B5007CFEF7E8FA20EAE07008BD08B5F4
:10D05000007CFEF7D3FA20EAE07008BD13B5044661
:10D06000007C0191FEF7D8FA0028019901DC607C70
:10D0700020B1207CFEF7ECFA20EAE07002B010BD8F
:10D08000007CFEF7F3BA10B504461421FDF743F80F
:10D09000204610BD10B54FF47A73044608460021AF
:10D0A000C4E90113044B2074236001231146637407
:10D0B000FEF77AFA204610BD64FB3F020022007C96
:10D0C000FEF780BA007CFEF78BBA10B50446142236
:10D0D000002101F0F0FA204610BD000010B588B024
:10D0E00003A8FFF7F2FF0C4CD4E88F1F11F00101E9
:10D0F0000FD120460191FEF7A3FC019948B103AA84
:10D100000648FFF7C7FF2046FEF7A8FC044801F0D9
:10D110009DFA024808B010BD4CAF071050AF071081
:10D12000CDDF3F02012200F1100313F8101C184656
:10D13000012908D153F8041C02EB4102013A03F122
:10D140001003F2D17047022904BF53F8041C52188F
:10D15000F4E70EB4F0B588B0102100AF07F1340544
:10D1600055F8042B04462B4678187A60FD60FEF7CC
:10D1700021FC0F287A681AD900F1080323F007036D
:10D180006E46ADEB030D411C2B466846FD60FEF775
:10D1900011FC021E04DD2368694620469B689847FF
:10D1A000B5462037BD46BDE8F04003B070470028C3
:10D1B000F7D0236802469B68204607F11001984784
:10D1C000EFE738B50B68044603604D6843689D423D
:10D1D00008D015B16B6801336B60606808B1FEF769
:10D1E0005BFD656038BD07B503688DF80710012247
:10D1F0009B680DF10701984703B05DF804FB0B46EF
:10D200001146002210B50446C0E9002283600BB924
:10D21000204610BDFFF7D5FFFAE78368EBB11A7817
:10D22000032A1AD8DFE802F00417021B0520704712
:10D2300002685B685268D05C2D2812D0A0F13003E0
:10D24000092B0ED974280ED066280CD0A0F16E03DD
:10D25000584258417047062070470020704704200C
:10D260007047032070470220704710B50446FFF74F
:10D27000D4FF02280ED0C31EDBB2012B14D82268C3
:10D28000A36850685B680A22BDE81040002118447A
:10D2900001F012BB2268A36852685B68D05CA0F101
:10D2A00074035842584110BD0020FCE738B50023F4
:10D2B0000446C0E900330E48C4E90203A9B10B7863
:10D2C000032B06D08BB9136858684B68C35C6E2B70
:10D2D00007D013684D6858688B6828445B1BA060B2
:10D2E000E36011462046FFF76CFF204638BD00BFC3
:10D2F000B2FA3F0238B500250B4604461146C0E994
:10D300000055C0E90255C0E904554BB11A78012A0D
:10D3100006D103F11002DB6882604361FFF751FF21
:10D32000204638BD10B54369044663B18068013BAF
:10D33000E0601030A0602061636113B1FFF7F2FE7E
:10D34000A060012000E0184610BD10B57D21044604
:10D35000FFF749FF01232046237110BD08B503796B
:10D36000012B02D0022B04D008BD2C21FFF73BFF7C
:10D37000FAE73A21FAE710B50446FFF7EFFF204637
:10D380007B21FFF730FF00232046237110BD0000F2
:10D3900013B504460191FFF7E1FF23682046DB68DF
:10D3A000019A0349984701232046237102B010BD1A
:10D3B00010FC3F0213B504460191FFF7CFFF23682D
:10D3C0002046DB68019A03499847012320462371D0
:10D3D00002B010BD90FB3F022DE9F0470D4690468C
:10D3E000222104462F46FFF7FEFEDFF8A490A84452
:10D3F0004745BA463DD017F8016B222E06D05C2E69
:10D4000004D0304601F028F90028F1D123682946DC
:10D4100020469B68AAEB050298475C212046FFF74F
:10D42000E2FE0D2E0AD8072E1CD9A6F10803052B03
:10D4300018D8DFE803F00D0F11171315222E01D0B5
:10D440005C2E0FD131462046FFF7CDFE3D46CFE79B
:10D450006221F8E77421F6E76E21F4E76621F2E72E
:10D460007221F0E72368324649462046DB68984738
:10D47000ECE7BD4205D02368294620469B687A1B0D
:10D48000984722212046FFF7AEFEBDE8F08700BF97
:10D4900093FB3F0213B50446CDE90021FFF75EFF81
:10D4A000DDE900212046FFF797FF02232046237184
:10D4B00002B010BD13B50446CDE90021FFF74EFFC1
:10D4C000DDE900212046FFF787FF01232046237175
:10D4D00002B010BD70474174704708B5007CFDF77D
:10D4E00067FF20EAE07008BD08B5007CFDF71AFF71
:10D4F00020EAE07008BD08B5007CFDF72FFF40EA88
:10D50000E07008BD08B5007CFDF71AFF40EAE07046
:10D5100008BD007CFDF730BF37B5457C04462DB112
:10D52000207C03B0BDE83040FDF7EEBE007C0191E9
:10D53000FDF73EFF00280199F2DC284603B030BD1C
:10D5400010B504461421FCF7E6FD204610BD00008E
:10D5500010B54FF47A730446084611460022C4E918
:10D560000123044B2074236001236374FDF73CFF07
:10D57000204610BDA4FB3F020023007CFDF726BF20
:10D580000022FFF7F9BF007CFDF7B0BE007CFDF77D
:10D5900001BF7047F8B5064615460C468F18BC42C9
:10D5A00006D0336830469B6814F8011B9847F6E7AD
:10D5B0002846F8BD0022007CFDF724BF0021007C36
:10D5C000FDF72EBF0021007CFDF738BF0021007C55
:10D5D000FDF742BF0021007CFDF74CBF10B50446AB
:10D5E0001421FCF798FD204610BD000038B5044614
:10D5F00015464FF47A730022C4E90123094B08460B
:10D60000217423602946FDF751FFBF3008D16B69B3
:10D61000DB0705D56868FEF7B1F9E868FEF7AEF9F3
:10D62000204638BDD8FB3F02FF210022044B0120D9
:10D63000C3E9001264211A61C3E90201704700BF07
:10D6400064AF071013B503688DF807101C6C012236
:10D650004FF0FF330DF10701A04702B010BD10B429
:10D6600003681C6C4FF0FF33A4465DF8044B604721
:10D6700013B5134602688DF80710146C0DF10701FD
:10D680000122A04702B010BD10B543690446B3F8AB
:10D690008620B3F884309A4208D06369B3F88420B6
:10D6A000511CA3F884101344187910BD03681B693A
:10D6B00098470028F1D14FF0FF30F6E770474369F3
:10D6C0001868C043C00F704770470000064B10B584
:10D6D000994200F10C0405D0084600F0A5FE002890
:10D6E00008BF0024204610BD38FA3F0210B504469A
:10D6F000AC21FCF710FD204610BDAC21FCF70BBDA2
:10D700002DE9F0414FF000081C4686B0C0F80480B7
:10D7100005460E4617464146102202A800F0CBFFF0
:10D72000631C09D04FF47A73B4FBF3F203FB124489
:10D730005C43CDE90228049410236869009341F208
:10D74000050240F6FF71006802ABFDF7BDFE002840
:10D7500007DAFEF74BF9036800206B6006B0BDE8FE
:10D76000F081686900233A4631460068FDF7E4FE1F
:10D77000031EEEDB1846F1E730B5044687B0684675
:10D78000FFF73AFC01AD04340FCD0FC42B682370B2
:10D7900007B030BD70B5044606464D69044B8C3564
:10D7A00044F8043B0FCD0FC42B683046237070BD86
:10D7B00050FB3F022DE9F0430D46002498460368D4
:10D7C00093B01B6B06461746984728466B46224681
:10D7D00021460094FDF7AAFC0546002863D1009B72
:10D7E000002B4BD05B69002B48D006A8FFF7B4FB99
:10D7F000009B5C696378022B04D1211D06A8FFF70A
:10D80000BBFF26E00A2B24D11122294601A800F0F3
:10D8100052FFA368002B38D004F108030DF1040C6B
:10D820001834624618685968083303C2A342944604
:10D83000F7D1062301A90CA88DF8143007ACFFF727
:10D8400099FB0DF1340CBCE80F000FC4DCF800307C
:10D85000237006A8FFF7A0FB80B133680DACD3F8A6
:10D860002490124B07AD0C930FCD0FC42B683A4692
:10D870002370304643460CA9C84705460098FDF77B
:10D8800047FC284613B0BDE8F083E368002BC3D102
:10D890004FF6FF70D4F81090FDF70CFD8145BBD119
:10D8A00004F11401AAE72546E8E700BF50FB3F0258
:10D8B00038B5436905461A68002A10DAB3F886209D
:10D8C000B3F884309A420AD103681B69984704462A
:10D8D00028B92B6828461B6B9847204638BD012085
:10D8E000FCE710B543690446B3F88620B3F88430EA
:10D8F0009A4205D06369B3F884201344187910BDA7
:10D9000003681B6998470028F4D14FF0FF30F6E711
:10D91000F8B543691746B3F88620B3F88430054656
:10D920009A420E4616D069693046B1F88430B1F893
:10D930008640E41ABC4228BF3C46043322461944C0
:10D9400000F092FE6A69B2F884302344A2F8843071
:10D950002046F8BD03681B6998470028E3D14FF0C3
:10D96000FF34F5E700234269A2F884304269A2F847
:10D9700086307047F0B50C461F4603688BB01B6BB2
:10D98000054616469847237D0622042B0CBF02202D
:10D990000A200121FDF7DEFD6B6918606B691B68C9
:10D9A000002B07DA2B6828461B6B0024984720467B
:10D9B0000BB0F0BD2846FFF7D5FFB7B1002303A990
:10D9C000F8B20393ADF81030FDF7F6FB0028E9D16B
:10D9D00006236869009341F20B0240F6FF7100686C
:10D9E00003ABFDF771FD0028DCD11C22002103A848
:10D9F00000F061FE237D042B1DD14FF407733046E8
:10DA0000ADF80C30FDF764FCADF80E006068FDF772
:10DA100051FC04906B691C22186803A9FDF770FD86
:10DA20000028BFD16D6904348C350FCC0FC5236835
:10DA300001242B70BBE740F61C233046ADF80C30B8
:10DA4000FDF746FC05AEADF80E00231D04F11407EA
:10DA5000324618685968083303C2BB421646F7D1EC
:10DA6000D8E7000030B542690446B2F886308BB082
:10DA70002BB1B2F884209A4201D1FFF773FF61699C
:10DA80000868002818DBB1F886507F2D14D80431BF
:10DA90000823C5F180022944FDF740FD002813DD6D
:10DAA0006369B3F886200AB9A3F884206369B3F8E0
:10DAB00086201044A3F886006369B3F88600B3F8A3
:10DAC0008430C01A0BB030BDFDF790FF03680B2BFC
:10DAD000F2D0FDF78BFF03680B2BEDD02023002540
:10DAE000CDE90235FDF782FF036802AA0193084BD6
:10DAF0003220084900932B46FDF7C6FD636918687C
:10DB0000FDF7F0FC4FF0FF3263691A60D4E700BF05
:10DB100003FC3F02FCFB3F0210B543690446186852
:10DB2000002801DBFDF7DEFC4FF0FF3263690021C6
:10DB30001A60606911228C3000F0BDFD2046BDE8FE
:10DB40001040FFF70FBF002310B504460160C0F876
:10DB500084308830FFF700FA204610BD00234FF4D0
:10DB60007A7273B5C0E901320E4A03610260436103
:10DB70000446AC200191FCF7CAFA051E05F10C061B
:10DB800008D00123C5E90133074B304601992B60CA
:10DB9000FFF7D9FF2046C4E90565FFF7E3FE02B0B1
:10DBA00070BD00BF38FC3F021CFC3F0210B50446AC
:10DBB0004FF0FF31FFF7D2FF204610BD10B50446ED
:10DBC0000068002801DBFDF78DFC204610BD0C30FD
:10DBD000FFF7F4BF002240681146FDF70BBE00229C
:10DBE00040681146FDF73EBE002240681146FDF731
:10DBF00055BE00224068FDF743BE0022406881F018
:10DC00000101FDF721BE002340681A461946FDF7C1
:10DC10000DBE002340681A461946FDF7F9BD0022E3
:10DC200040681146FDF7CABD002202214068FDF799
:10DC3000D3BD002340681A46FDF7B2BD0422024B53
:10DC40005A60024A1A60704778AF071088FC3F029A
:10DC5000002340681A46FDF7A3BD00220221406858
:10DC6000FDF7BABD002240681146FDF7A7BD0022AE
:10DC700040681146FDF7BEBD002340681A461946AC
:10DC8000FDF7C6BD002340681A461946FDF7CEBD14
:10DC900000214068FDF710BE00214068FDF71ABE64
:10DCA0000022406881F00101FDF7CEBD00224068EE
:10DCB000FDF7E6BD002240681146FDF7EFBD0022EA
:10DCC00040681146FDF7CEBD00214068FDF71EBE3D
:10DCD0002DE9F0430026984699B00D4614460746B4
:10DCE000FFF73AF91C22314611A8039600F0E3FC35
:10DCF000B8F1000F2CD1402368681093049618B136
:10DD000004A9C0B2FDF766FA049B204600930021E7
:10DD100003AB10AAFDF718FA044600284DD10246BD
:10DD200001216868FDF766FD022180462246686889
:10DD3000FDF760FD21468146039E002E3DD000295F
:10DD40003BD17368022B05D00A2B13D0F669F4E798
:10DD50001D4BD1E7B8F1000FF8D071690AA8043162
:10DD60003C1D0BADFFF748F90FCD0FC42B684146A2
:10DD70002370EBE7B9F1000FE8D0102205A8746911
:10DD800000F099FC062305AD8DF8243004F108035A
:10DD900018342A4618685968083303C2A342154646
:10DDA000F7D105A90AA83C1D0BADFFF7E3F80FCD8D
:10DDB0000FC42B6849462370C8E70398FDF7A8F9FC
:10DDC000384619B0BDE8F08340000040033802280F
:10DDD0009ABF024B53F8200001487047C4FC3F0231
:10DDE00080AF071008B500224068FDF781FDBDE84F
:10DDF0000840FFF7EBBF0000024B034A1A60002205
:10DE00005A60704780AF0710D8FC3F021B2837B517
:10DE1000044602D9002003B030BDA0F10F03022B4D
:10DE20000BD9012821D800F035F90021007CFDF73D
:10DE30002FFB80F00100C0B2EDE7114DD5E88F1F38
:10DE400011F001010BD128460191FDF7F9FD01996F
:10DE500028B10C48FDF776FE2846FDF7FFFD094B7B
:10DE60001878FDF793FB0028D4D1083C012C05D885
:10DE700000F064F8007CFDF78DFADAE70120CAE7CC
:10DE800088AF07108CAF07101B2838B504460D4625
:10DE90000AD8FF2908D0FFF7B9FF28B12946204644
:10DEA000BDE83840FDF75EB938BD38B504460D46CB
:10DEB000FDF766F9FF2810D0062804D84D2323FA71
:10DEC00000F0C30709D42046FFF7A0FF28B1294678
:10DED0002046BDE83840FDF761B938BD7047000005
:10DEE00038B5142504462A46002100F0E4FB2580BD
:10DEF0004025074928462581258200F08FFA0449EC
:10DF00006060284600F08AFAE060204638BD00BF15
:10DF100043FD3F027047704710B50446FFF7E0FF2E
:10DF2000204610BD10B50446FFF7DAFF204610BDAD
:10DF300010B50446FFF7D4FF204610BD30B50E4D96
:10DF400087B0D5E88F1F11F0010411D12846FDF7E5
:10DF500077FD68B101A8FFF7DFFF214601AA074856
:10DF6000FFF7F6FA2846FDF779FD054800F06EFB4D
:10DF7000024807B030BD00BF94AF0710A0AF071034
:10DF80008DEE3F0210B50D4C86B0D4E88F3FDB0715
:10DF900011D42046FDF754FD68B101A8FFF7C2FF78
:10DFA000012101AA0648FFF7D3FA2046FDF756FDE6
:10DFB000044800F04BFB024806B010BD98AF0710B4
:10DFC000B4AF0710C7EE3F0210B5FFF7DBFF074BFA
:10DFD000044653B1FFF7DAFA38B1236820461B69CB
:10DFE0009847002801DD00E000BF10BD00000000E0
:10DFF00010B50D4C86B0D4E88F3FDB0711D4204616
:10E00000FDF71EFD68B101A8FFF792FF022101AAEA
:10E010000648FFF79DFA2046FDF720FD044800F072
:10E0200015FB024806B010BD9CAF0710C8AF071023
:10E03000C5EE3F0210B5FFF7DBFF074B044653B1B7
:10E04000FFF7A4FA38B1236820461B6998470028D7
:10E0500001DD00E000BF10BD0000000070470000BF
:10E0600038B50A4B04460360012309494361202067
:10E0700000F0D4F92025606005492846A56000F02D
:10E08000CDF9C4E90305204638BD00BF18000100E2
:10E0900043FD3F0230B50E4D87B0D5E88F1F11F01C
:10E0A000010411D12846FDF7CBFC68B16846FFF7A3
:10E0B000D7FF6A4621460748FFF798FA2846FDF73A
:10E0C000CDFC054800F0C2FA024807B030BD00BFE1
:10E0D000E0AF0710E4AF07100DF03F024FF08042B1
:10E0E000D2F8183223F0FE6343EA0050C2F8180257
:10E0F00070470000012870B54FF080444AD1D4F831
:10E10000A0309A0045D44FF09045D5F8083202204F
:10E1100043F08053C5F80832D5F88032214E43F0E1
:10E120000303C5F88032B047D5F880324FF4C87089
:10E1300043F00403C5F88032D4F8803043F0004344
:10E14000C4F88030B047D5F8643223F00053C5F8E6
:10E150006432D4F8803043F0C043C4F88030236880
:10E1600023F480232360D4F8843043F00103C4F8FF
:10E170008430D4F8A0309B00FBD5D4F8803043F431
:10E180008073C4F88030D4F8803043F08003C4F842
:10E19000803070BDD4F8803023F0C04323F4C073C6
:10E1A000F5E700BF49A910100023C0E90033C0E91A
:10E1B00002337047436801290BBF23F4803343F4D3
:10E1C0008033436043600BBF4368436843F40033CC
:10E1D00023F4003343607047436801290BBF23F0E9
:10E1E000807343F08073436043600BBF43684368B0
:10E1F00043F0007323F000734360704738B50B6839
:10E2000005460C4633B1023B012B03D93A211F4886
:10E2100000F06EFB6368032B06D9063B012B03D984
:10E220003B211A4800F064FBA368012B03D93C2171
:10E23000164800F05DFBE368032B03D93D2113482A
:10E2400000F056FB6B68002143F001036B606B68C4
:10E25000284623F001036B600D4BEB610D4B984793
:10E260000D4B9847D4E900136A681B0222F0405214
:10E2700022F46C5243EA01331343A26843EAC223F7
:10E28000E26843EA02736B6038BD00BF35FD3F02B0
:10E290007102108065F13F0289F13F028368012914
:10E2A0000BBF43F4002323F40023836083600BBF80
:10E2B000C368C36823F4002343F40023C36070479A
:10E2C0002DE9F7431F46DDE90A560C2358434B4B13
:10E2D0000C4653F80080D8F8049031B94FF4A77178
:10E2E0004748019200F004FB019A39460C23454F40
:10E2F0000020B847FF2807467ED054220021424B19
:10E30000204698470B21216408F1100100220223C6
:10E31000012021621321C9F30139B9F1030FC4E9C6
:10E320000423A2642263E064636022706770E16288
:10E3300044D1C4E90620E260A3602685238DB3F5AD
:10E34000805F04D940F277112D4800F0D1FA2246BF
:10E350002E4B61782078656298472D4A2F46536985
:10E36000DB0322D5681C30D1711C30D10023C2F8E8
:10E370008430BFF34F8F43F6E075D2F88030C3F39B
:10E38000C900C3F34E335B01014603EA050747EAC0
:10E39000C1760139C2F87462F9D2203B13F1200F23
:10E3A000F2D1BFF34F8FBFF36F8F207801226178D6
:10E3B000184B9847012003B0BDE8F083C4E9063349
:10E3C000E360A360B3082385B8E7EB0607D025F028
:10E3D0001F073544013D25F01F052035EE1B35464E
:10E3E000BFF34F8F0A4A3744002DA7EB0503D8DD52
:10E3F000C2F87032203DF7E70020DCE714FD3F0251
:10E4000020FD3F023DC41010A10E1110F9BF1010E5
:10E4100000ED00E091BF1010FBF779BEFBF779BE6D
:10E4200008B5FDF7D5FA0000014900F0F9B800BFC2
:10E430005CFD3F027FB50024102315461268CDE92C
:10E4400002340368CDE900449E696B46B0479DF8ED
:10E45000043003F00603062B05BF009B0120204675
:10E460002B6004B070BD0098904214BF01200620BC
:10E4700070470000034B10B50446036000F0CDF870
:10E48000204610BD9CFD3F0210B50446FFF7F2FF89
:10E4900008212046FBF73FFE204610BD2DE9F04144
:10E4A000DDF818801F4606461546DDE90834984514
:10E4B00007D1079900F0B4F818B165710020BDE8E4
:10E4C000F0813946304600F0ABF80028F6D0012341
:10E4D000C4F800802571A371F0E738B515461C46D5
:10E4E00000F09EF820B108232560E3600623237125
:10E4F00038BD73B505460C461E46019200F090F8F3
:10E5000050B9032E08D823682946019A20465B6932
:10E5100002B0BDE87040184702B070BD034B10B5A3
:10E5200004460360FFF7A6FF204610BDFCFD3F0236
:10E5300010B50446FFF7F2FF0C212046FBF7EBFD78
:10E54000204610BDF7B5089F05460E461446974273
:10E550000AD0A868314602680897156A2246AC4678
:10E5600003B0BDE8F04060471946019300F058F849
:10E57000019B0028EDD0062003B0F0BD2DE9F14F3E
:10E580000D461946814617469846DDE90A4BDDE9F6
:10E590000CA600F045F890B1002D3460377109DB0E
:10E5A00061198A450CBF06210121B171002001B01B
:10E5B000BDE8F08F0235F9D10123B371F6E7544578
:10E5C00006D15946484600F02BF808B17771EDE7BF
:10E5D000D9F808003A4629460368CDE90CA6CDE9EA
:10E5E0000A4BDC694346A44601B0BDE8F04F6047E2
:10E5F0002DE9F04107460C4615461E46FFF76DFF14
:10E6000048B9B8682A46214603689F693346BC4624
:10E61000BDE8F0416047BDE8F081704700207047D9
:10E62000814208B50ED0406803782A2B0CD0496887
:10E630000B782A2B08BF0131FBF73AFDB0FA80F0C6
:10E64000400908BD0120FCE70020FAE7002301464D
:10E650001A461846FBF77ABD024B1844407800F082
:10E6600097007047C9FE3F020A44431E914200D101
:10E67000704710B511F8014B914203F8014FF9D1E1
:10E6800010BD884210B501EB020402D98442234632
:10E6900007D8431EA14208D011F8012B03F8012F1F
:10E6A000F8E7024401468A4200D110BD13F8014D3B
:10E6B00002F8014DF7E702440346934200D1704748
:10E6C00003F8011BF9E7000038B5104B04461D683C
:10E6D000AB6BB3B91820FDF743F90246A86320B924
:10E6E0000B4B42210B48FDF78FF90B490B4BC0E94F
:10E6F00000130B4B002183600B2383810120C2E9AF
:10E700000401AB6B00221C615A6138BDA4A4071040
:10E7100035FE3F024CFE3F020E33CDAB34126DE6A8
:10E72000ECDE0500C9B2034610F8012B1AB18A428B
:10E73000F9D118467047002918BF0023F9E710B532
:10E740000446FFF7EFFF18B92046FBF7BBFC204457
:10E7500010BD034611F8012B03F8012B002AF9D153
:10E76000704710B57AB103460139841813F8010BCC
:10E7700011F8012F904201D1A34201D1801A10BD9E
:10E780000028F3D1FAE71046F9E738B503460C46FE
:10E7900069B9BDE83840FFF7C5BF431C05462146AF
:10E7A0001846FFF7BFFF0028F7D1284638BD0025DF
:10E7B000F5E70000012B2DE9F04701D0242B06D905
:10E7C000FDF714F9162303600020BDE8F0870D461D
:10E7D000DFF8E0C02E4615F8014B14F80C7017F066
:10E7E0000807F7D12D2C32D12C780127B51C002B2E
:10E7F0005BD0102B09D1302C07D12C7804F0DF042A
:10E80000582C4DD16C781023023507F100484FF099
:10E81000000C08F1FF386646B8FBF3F903FB198AD0
:10E82000A4F1300EBEF1090F16D87446A34224DDC0
:10E83000BCF1000F1EDBB1451CD301D1A24519DB91
:10E8400006FB03464FF0010C15F8014BE8E72B2CB3
:10E8500004BF2C78B51CCAE7A4F1410EBEF1190F14
:10E8600001D8373CE2E7A4F1610EBEF1190F04D8DC
:10E87000573CDBE74FF0FF3CE6E7BCF1000F05DA61
:10E8800022234646036042B930469EE707B17642EE
:10E89000002AF9D0BCF1000F00D0691E1160F3E727
:10E8A0003024002BB1D10823AFE7302CA5D00A23A8
:10E8B000ABE700BFCAFE3F0213460A4601460248C4
:10E8C0000068FFF777BF00BFA4A407100000000096
:10E8D00001B40248844601BC604700BF49A910103A
:10E8E00001B40248844601BC604700BF95A91010DE
:10E8F00001B40248844601BC604700BF71A81010F3
:10E9000085B03F02ADB03F02B1B03F020000000051
:10E9100043616C6C206F6E20707572652076697231
:10E920007475616C007374617274696E67006661FE
:10E93000696C656420746F20636F6E6E656374200C
:10E94000746F207365727665720073746F7070698E
:10E950006E670050444D206465636F646572206982
:10E960006E6974206572723D25640050444D2064C8
:10E9700065636F646572207374617274206572726E
:10E980003D256400000000000000000000000000C1
:10E9900000000000CDB03F0241B83F02000000007F
:10E9A00000000000E1B83F0215B93F02A5D93F02BF
:10E9B0004DDB3F0200000000000000003BBE3F02B4
:10E9C00045BE3F0231BE3F0253BE3F0235BE3F024D
:10E9D0007BBE3F023DBE3F028BBE3F029DBE3F025B
:10E9E000CBBE3F02000000000000000059BF3F0204
:10E9F0006DBF3F0231BE3F0253BE3F0235BE3F02F4
:10EA00007BBE3F023DBE3F028BBE3F029DBE3F022A
:10EA1000CBBE3F02000000000000000081BF3F02AB
:10EA200095BF3F0231BE3F0243BF3F023DBF3F02A1
:10EA300047BF3F024BBF3F024FBF3F0253BF3F02A2
:10EA4000A9BF3F02000000000000000087CA3F028B
:10EA50007DCA3F0273CA3F0269CA3F025DCA3F02D4
:10EA600051CA3F0241EC3F0249EC3F0245CA3F0216
:10EA70003DCA3F0233CA3F0229CA3F0295ED3F0219
:10EA800079EC3F0281EC3F02000000000000000032
:10EA90000000000000000000E5CC3F02E7CC3F0290
:10EAA000A5CC3F0203E13F026261756400536572C9
:10EAB00069616C0053657269616C31004A534F4E55
:10EAC00053747265616D4C6F6748616E646C6572FA
:10EAD0000061707000253031307520005D20002C01
:10EAE000200028293A2000205B00636F6465203DE8
:10EAF000200025690064657461696C73203D200005
:10EB00000D0A006D0066006C6E00666E0074006396
:10EB10006F64650064657461696C0000000000004A
:10EB2000000000002DD23F0245D23F02A5D93F028E
:10EB30004DDB3F02000000000000000059D23F0200
:10EB40006DD23F0285DB3F02AFCD3F0200000000E7
:10EB500000000000C1CD3F02E7CD3F0209D93F02CE
:10EB6000B1CD3F020000000000000000BFCD3F0219
:10EB7000F5CD3F0295D13F0217CE3F0225592D25F5
:10EB80006D2D25645425483A254D3A2553257A00A4
:10EB900061736374696D650000000000000000008F
:10EBA000A5DE3F0295DE3F0297DE3F020000000037
:10EBB00000000000CFDF3F0237E03F020DE03F02E0
:10EBC000B9CC3F02FFDF3F02D1DF3F02E1DF3F026E
:10EBD00031E03F0285CD3F02F1DF3F02C9DF3F0256
:10EBE0002575007525303478000000000000000015
:10EBF0000000000085E43F02F1E43F02C9E43F0267
:10EC0000B9CC3F0299E43F02B5E43F02A7E43F02DA
:10EC1000C3E43F0285CD3F0287E43F028BE43F021D
:10EC2000000000000000000043E53F028DE53F02C8
:10EC300065E53F0245E53F026DE53F0275E53F02B0
:10EC40007DE53F0285E53F0285CD3F027769726928
:10EC50006E670072656376206572726F72203D2068
:10EC600025640000000000000000000079E63F027B
:10EC70009DE63F027FEB3F02ABE63F027DE63F02AF
:10EC800000000000000000000DDD3F0225DD3F0216
:10EC9000F5E53F020FE63F0215EA3F0239E63F0283
:10ECA00093E83F026DE63F0285CD3F0225E93F0232
:10ECB00065E73F02C1E83F02C9EA3F0261E83F025F
:10ECC0006FE63F0221E63F02B1E63F0245E73F0221
:10ECD0000000000000000000E3EB3F02D9EB3F0220
:10ECE000CFEB3F0285EB3F02C3EB3F02B7EB3F02A6
:10ECF00041EC3F0249EC3F02ABEB3F02A3EB3F028A
:10ED000099EB3F028FEB3F0295ED3F0279EC3F021A
:10ED100081EC3F02D0AE071078AF071080AF07102C
:10ED2000000000000000000001EC3F020BEC3F027D
:10ED300015EC3F021FEC3F0229EC3F0235EC3F028D
:10ED400041EC3F0249EC3F0251EC3F025DEC3F02D7
:10ED500065EC3F026FEC3F0295ED3F0279EC3F021C
:10ED600081EC3F02000801400A0000000B00000097
:10ED7000415544494F5F53505F525847444D415F9E
:10ED8000496E697400415544494F5F53505F496E65
:10ED900069740000537431395F53705F6D616B6546
:10EDA0005F7368617265645F746167009CFD3F0218
:10EDB00044FD3F02FCFD3F0270FD3F0220FE3F028A
:10EDC0004E31305F5F637878616269763131375FE9
:10EDD0005F636C6173735F747970655F696E666F92
:10EDE000450000000000000064FD3F0225F43F02E2
:10EDF00039F43F02CDF53F02CDF53F02A3F43F02C7
:10EE0000E5F33F028BF43F024DF43F0217F43F025B
:10EE1000FCFD3F02CCFD3F0264FD3F024E31305FFE
:10EE20005F637878616269763132305F5F73695F02
:10EE3000636C6173735F747970655F696E666F454B
:10EE40000000000000000000C0FD3F02CDF43F02C2
:10EE5000E1F43F02CDF53F02CDF53F02A3F43F02BE
:10EE6000E5F33F02A1F53F022DF53F02F5F43F0225
:10EE70009CFD3F0228FE3F02537439747970655F30
:10EE8000696E666F005245454E54206D616C6C6F23
:10EE90006320737563636565646564002F6D6E74CC
:10EEA0002F776F726B73706163652F776F726B73FF
:10EEB000706163652F4743432D31302D7069706554
:10EEC0006C696E652F6A656E6B696E732D4743437F
:10EED0002D31302D706970656C696E652D34385F29
:10EEE00032303230313132345F31363036313830D1
:10EEF0003634312F7372632F6E65776C69622F6EB3
:10EF000065776C69622F6C6962632F7374646C69D6
:10EF1000622F72616E642E6300002020202020206A
:10EF200020202028282828282020202020202020B9
:10EF300020202020202020202020881010101010B9
:10EF40001010101010101010101004040404040409
:10EF500004040404101010101010104141414141EC
:10EF60004101010101010101010101010101010151
:10EF700001010101011010101010104242424242E2
:10EF80004202020202020202020202020202020221
:10EF90000202020202101010102000000000000007
:10EFA0000000000000000000000000000000000061
:10EFB0000000000000000000000000000000000051
:10EFC0000000000000000000000000000000000041
:10EFD0000000000000000000000000000000000031
:10EFE0000000000000000000000000000000000021
:10EFF0000000000000000000000000000000000011
:10F000000000000000000000000000000000000000
:10F0100000000000000000000000000065BD3F028D
:10F0200091CA3F02E5CA3F0209CB3F0295CC3F029D
:10F0300095D93F02F9DC3F0239DD3F02D9E53F02B5
:08F04000EDEB3F02A9ED3F02D8
:10F0480000000002D31B000004FB3F021CFB3F0230
:10F0580040FB3F02A8A407100000000000000000C9
:10F068000000000000000000000000000000000098
:10F078000000000000000000000000000000000088
:10F088000000000000000000000000000000000078
:10F098000000000000000000000000000000000068
:10F0A8000000000000000000000000000000000058
:08F0B800000000000000000050
:04F0C000000000004C
:10FFBE000200100000A05F08A8A05F0858B03F0222
:10FFCE0001000A00FFFFFFFFFFFF00000102030414
:10FFDE0005060708090A0B0C0D0E0F10111213144B
:0EFFEE0015161718191A1B1C1D1E1F203E0089
:04FFFC0078563412ED
:04000005085FA018D8
:00000001FF
